:020000040800F2
:10000000580700209D010008351D0008151A00083A
:1000100000000000000000000000000000000000E0
:100020000000000000000000000000007320000835
:100030000000000000000000371D0008B920000883
:10004000CD010008CD010008AD1D0008CD0100085C
:10005000CD010008CD010008CD010008CD01000848
:1000600000000000CD010008CD010008CD0100080E
:10007000E1050008CD01000800000000CD010008E6
:100080000000000000000000000000000000000070
:10009000CD0100080000000000000000CD010008B4
:1000A00000000000CD01000800000000000000007A
:1000B000CD010008CD010008000000000000000094
:1000C00000F002F800F03EF80CA030C80838241800
:1000D0002D18A246671EAB4654465D46AC4201D180
:1000E00000F030F87E460F3E0FCCB6460126334274
:1000F00000D0FB1AA246AB4633431847B028000095
:10010000D0280000103A02D378C878C1FAD8520734
:1001100001D330C830C101D504680C6070470000BD
:100120000023002400250026103A01D378C1FBD813
:10013000520700D330C100D50B6070471FB51FBDFB
:1001400010B510BD00F019FA1146FFF7F7FF02F0E5
:100150004FF800F031FA03B4FFF7F2FF03BC00F0F0
:1001600037FA000070B505460C46164602E00FCC83
:100170000FC5103E102EFAD2082E02D303CC03C5B1
:10018000083E042E07D301CC01C5361F03E02178B9
:100190002970641C6D1C761EF9D270BD0F4880F367
:1001A00008880F480168090E0E4A914205D10E4891
:1001B0000E4901600E480F4901600F4880470F4803
:1001C0000047FEE7FEE7FEE7FEE7FEE7FEE700008A
:1001D0000B480C490C4A0D4B704700005807002093
:1001E000040000001F000000341002400100000065
:1001F00000000140000000005D210008C10000086F
:100200005801002058070020580300205803002000
:10021000FEB5054610460C46184373D0AE468C46D4
:100220000020AD1A01469C4167D366460027012491
:100230003D46B61A9D4102D313463A4621246546EF
:1002400076462F04360C3E432D0CB61A9D4104D33E
:10025000150C1B042B4312041034654676462F06FA
:10026000360A3E432D0AB61A9D4104D3150E1B02D1
:100270002B4312020834654676462F0736093E4363
:100280002D09B61A9D4104D3150F1B012B431201F2
:10029000241D65467646AF07B6083E43AD08B61A3C
:1002A0009D4104D3950F9B002B439200A41C6546EF
:1002B0007646EF0776083E436D08B61A9D411AD37D
:1002C00092185B41641C16E0001876466546494169
:1002D000B71A9D410191009009D36046B11A984127
:1002E0008E468446009801990025401C6941DD072F
:1002F00052082A435B08641EE6D57246634603B083
:10030000F0BDFFE700200146C046C0462A4623460E
:10031000F5E7000030B5441C03E00178401C0029DB
:100320000DD08107F9D10B4BDD0104C8D11A9143DF
:100330002940FAD0001B0A0603D0C01E30BD001BA6
:1003400030BD0A0401D0801E30BD0902FCD0401E21
:1003500030BD000001010101F8B5042A2CD3830748
:1003600012D00B78491C0370401C521E83070BD01F
:100370000B78491C0370401C521E830704D00B7875
:10038000491C0370401C521E8B079B0F05D0C91AD5
:10039000DF002023DE1B08C90AE0FFF7E3FEF8BDFB
:1003A0001D4608C9FD401C46B4402C4310C0121F16
:1003B000042AF5D2F308C91A521EF0D40B78491C4E
:1003C0000370401C521EEAD40B78491C0370401C79
:1003D000012AE4D409780170F8BD01E004C0091FC6
:1003E0000429FBD28B0701D50280801CC90700D0ED
:1003F0000270704700290BD0C30702D00270401C66
:10040000491E022904D3830702D50280801C891E5D
:10041000E3E70022EEE70022DFE7002203098B4238
:100420002CD3030A8B4211D300239C464EE0034693
:100430000B433CD4002243088B4231D303098B4247
:100440001CD3030A8B4201D394463FE0C3098B427D
:1004500001D3CB01C01A524183098B4201D38B01D6
:10046000C01A524143098B4201D34B01C01A524179
:1004700003098B4201D30B01C01A5241C3088B42BE
:1004800001D3CB00C01A524183088B4201D38B00A9
:10049000C01A524143088B4201D34B00C01A52414B
:1004A000411A00D201465241104670475DE0CA0F22
:1004B00000D04942031000D34042534000229C46E2
:1004C00003098B422DD3030A8B4212D3FC228901EC
:1004D00012BA030A8B420CD3890192118B4208D3C2
:1004E000890192118B4204D389013AD0921100E024
:1004F0008909C3098B4201D3CB01C01A5241830938
:100500008B4201D38B01C01A524143098B4201D364
:100510004B01C01A524103098B4201D30B01C01A8F
:100520005241C3088B4201D3CB00C01A5241830809
:100530008B4201D38B00C01A5241D9D243088B425F
:1005400001D34B00C01A5241411A00D20146634602
:1005500052415B10104601D34042002B00D5494266
:10056000704763465B1000D3404201B50020C0468F
:10057000C04602BD704770477047754600F024F8CA
:10058000AE46050069465346C008C000854618B00F
:1005900020B5FFF71DFE60BC00274908B6460026BF
:1005A000C0C5C0C5C0C5C0C5C0C5C0C5C0C5C0C523
:1005B000403D49008D46704710B50446C046C046D0
:1005C0002046FFF7C8FD10BD00487047F40000202A
:1005D00001491820ABBEFEE726000200704700006C
:1005E00010B5024800F0C2F810BD00001C00002049
:1005F00038B50446064805490068FFF70EFF60431A
:1006000000E0401E00900028FBD138BD40420F00A2
:10061000180000200A02D30E0A04920E09065201A5
:10062000C90E002803D0D802104308437047C802FF
:100630001043184370470000F0B502464032137C67
:100640000024012B34D00123137403689D686D07C7
:1006500032D40E7A8025012E5E682BD0AE435E60C8
:100660000368DD68194E3540DD600568EB680E688B
:100670001F2733434E68BF063E403343EB60036899
:100680008D89DE680969F606B60F7600B540DE682A
:10069000F606B60F7600B1401E6A0D4F3E401E6250
:1006A0002B0405682B620068036A0B43036208E0B1
:1006B0000220F0BD2E43D2E7416D2023194341654E
:1006C0000124002010742046F0BD0000FFFF3F838E
:1006D00000F000F0F8B506460D464036317C0129A1
:1006E0000DD00121317401688A68520709D5416D26
:1006F000202211434165002030740120F8BD022002
:10070000F8BD174B6A68D80547109A42154C8A6A9B
:100710002B6812D05B035B0B1A438A62296849037A
:1007200005D5A1680143A1600A20FFF761FF286891
:10073000800312D5A06838430EE05B035B0B9A433D
:100740008A622968490302D5A1688143A1602868AB
:10075000800302D5A068B843A06000203074F8BDC3
:10076000011000000027014070477047F8B50446AB
:10077000006805684668690701D5710703D4290731
:1007800032D5310730D5616DC90604D4616D0122BF
:10079000520211436165C1680C270905890F0029C0
:1007A0001AD12021095D002916D1290714D58168A5
:1007B0004A070121002A08DB4268BA434260606DA3
:1007C0000A0290430843606506E0606D20221043F2
:1007D0006065A06D0843A0652046FFF7C5FFA069CE
:1007E000012801D02068076028060CD530060AD5FC
:1007F000606D0121090408436065204600F000F99E
:10080000216880200860E80614D5F00612D5206B18
:100810001025002803D02068C068C00708D0A06D4C
:1008200002210843A065206805602046FFF79DFF70
:1008300020680560F8BD000070B5040006D0606D4A
:10084000264600254036002802D006E0012070BD73
:10085000A5653574204600F0D9F8606DC00603D454
:1008600021688868400705D5606D102108436065E0
:100870003574EBE7606DFF22013290430222104392
:10088000606588688207920F5B48012A02D10A6876
:10089000D2072BD1032362689B079A4205D05B42A3
:1008A0009A4202D05B009A4209D10A6992009208EA
:1008B0000A6121680A6963681A430A610CE00A69DF
:1008C000920092080A6181680F229204914381602C
:1008D00081686268114381602168CA6818239A435D
:1008E000CA602168CA68A3681A43CA608168012285
:1008F0005206914381608168A28E52061143816045
:1009000020688168C90004D481680122120711435C
:1009100081602068C168394A1140C1602069E1687E
:10092000022825D000200143204620300278037B96
:1009300052035B001A431143226B1143A2699203D5
:100940001143E269D20311432268D3681943D1608D
:10095000616A0A46FF3AC23A05D0A26A1143226888
:10096000D3681943D16042780121012A02D00BE0FB
:100970000420D8E70078002823D0606D202210439F
:100980006065A06D0843A065E06B012820681FD05A
:100990000169C90703D0016949084900016120685C
:1009A0004169C908C900416120684169A26B1143CE
:1009B0004161A565606D80088000401C6065002075
:1009C00070BD2068C26801231B041A43C260DBE7C4
:1009D0000269FF239B009A43026120680269236C2D
:1009E000A66C1A43636C33431A43026120680269A0
:1009F0000A430261D3E70000002701401902FEFF0D
:100A000001490120087070470000002010B586B031
:100A1000044614216846FFF7FEFC1249206888420C
:100A20001ED11148416B421511434163C16A012235
:100A30001143C162C06A69461040059010200090C1
:100A400003200190002002900520000700F020F80C
:100A5000002211460C2000F047F90C2000F038F974
:100A600006B010BD002401400010024070B50446DD
:100A700000F0DEF80546601C02D004480078241817
:100A800000F0D6F8401BA042FAD370BD0C00002045
:100A9000F8B5002303240125B3E032462E469E40DC
:100AA000B446324079D00E79B607B60F012E01D088
:100AB000022E17D186682746B6465E00B7400096DC
:100AC0007646BE43B646CF68009EB740764637436B
:100AD000876046686746BE430F79FF06FF0F9F4059
:100AE000374347600E79F643B6070ED0C6682746EF
:100AF000B4465E00B646B7406646BE43B4468F680D
:100B00007646B74066463743C7600E79B607B60FDC
:100B1000022E14D1DE08B60036180096366A5F073A
:100B2000B446FE0E0F27B646B7406646BE43B446EF
:100B30000F697646B74066463743009E37620668BF
:100B40002746B4465E00B646B7406646BE430F79B8
:100B5000B446BF07BF0F7646B740664637430760C7
:100B60004E68B603B60F4BD0294F7E6B2E437E6383
:100B70009F08284EBF00BE190096B6680F27B446DE
:100B80009E07360FB646B7406646BE4305273F0769
:100B9000B446B84202D100270BE031E01E4FB84204
:100BA00001D1012705E01D4FB84201D1022700E025
:100BB00006277646B74066463743009EB760184E14
:100BC000B6684F689643FF0200D51643144FBE60C7
:100BD000FE684F689643BF0200D51643104FFE6073
:100BE0007E684F689643BF0300D516430C4F7E6066
:100BF0003E684F689643FF0300D51643084A1660C7
:100C00005B1C0A681646DA4000D046E7F8BD0000D3
:100C10000010024000000140000400500008005095
:100C200000040140002A01D0816170478162704751
:100C300001488068704700000C000020024881686D
:100C400002788918816070470C00002010B50848B0
:100C500000240168402211430160032000F00AF8DB
:100C6000002801D0012401E000F026F8204610BD44
:100C70000020024070B504460D4D7D202978C0004B
:100C8000FFF7CBFB01460B480068FFF7C6FB00F0FF
:100C9000A1FE002809D1042C07D200222146401EC3
:100CA00000F022F800206C6070BD012070BD0000D3
:100CB0000C000020180000200448416B0122114361
:100CC0004163816B0204114381637047001002404D
:100CD000002805DBC106C90E0120884001490860D3
:100CE0007047000000E100E010B501F05FFA10BDB0
:100CF000024801688215114301607047007000408E
:100D0000F8B5044600780027504D800674D54F4E44
:100D1000403EB06BC00004D4B06BA9050843B0637B
:100D200001274B480168C90511D401688215114398
:100D30000160FFF77DFF009005E0FFF779FF009964
:100D4000401A642837D842480068C005F5D5326893
:100D50000321090560680A400140914208D08103DF
:100D6000890F032904D13168890301D50120F8BD19
:100D70002A69032109040A4022D0084090421FD06A
:100D80002078800631D528692A6988430121C90461
:100D90000A432A612A698A432A612861C0050FD55E
:100DA000FFF746FF009008E0FFF742FF0099411A65
:100DB0002848814201D90320F8BD28698005F3D570
:100DC0002078800611D561688803800F032805D13B
:100DD00032680005824301400A43326028690322D9
:100DE00061681204114008432861002F04D0B16BE0
:100DF000012000078143B1632078800705D5E868AA
:100E00000C218843A1680843E8602078400706D594
:100E1000E868032189028843E1680843E860207894
:100E2000000706D5E86803210903884321690843C0
:100E3000E8602078000606D5E86803218904884325
:100E400061690843E8600020F8BD000040100240DE
:100E50000070004088130000F8B50E46050038D039
:100E60005E480068C007C00FB04214D25B4C2068D7
:100E70004008400030432060FFF7DAFE074605E0F7
:100E8000FFF7D6FEC11B564881427AD82068C007BA
:100E9000C00FB042F4D12878524C800705D5E068E5
:100EA000F0218843A9680843E0602878C00752D041
:100EB0006868022806D0032807D0216801280AD0D4
:100EC000890504E02168890301E02168890100297E
:100ED00003DB0120F8BD4907F9E7E16889088900CB
:100EE0000143E160FFF7A4FE0746686802280AD0C4
:100EF000032814D001281ED029E0FFF799FEC11B5A
:100F0000374881423DD8E0680007800F0228F4D1BD
:100F100021E0FFF78DFEC11B3148814231D8E068E6
:100F20000007800F0328F4D115E0FFF781FEC11BF5
:100F30002B48814225D8E0680007800F0128F4D1B2
:100F400009E0FFF775FEC11B2548814219D8E0680A
:100F50000007800FF5D121480168C907C90FB142C8
:100F600017D901684908490031430160FFF760FE65
:100F7000074608E005E0FFF75BFEC11B1848814209
:100F800001D90320F8BD15480068C007C00FB04262
:100F9000F1D12878400706D5E06807210902884387
:100FA000E9680843E0602878000707D5E068072172
:100FB000C90288432969C9000843E06000F01AF8B3
:100FC000E168094A0906090F515CC84007490860F1
:100FD00007480068FFF74EFEF8BD00000020024001
:100FE000881300000010024090290008180000201B
:100FF0001000002070B51A4AD3681A490C20184016
:101000008D0004280CD04E00082810D00C2810D0D9
:1010100050680004410F0120C003491C884070BD86
:101020001068C00601D5084670BD284670BD304620
:1010300070BD98020C4C000F205C1B029C0FD36803
:10104000641CDB0301D5314603E01268D20600D4EC
:10105000294601F093F822460023FFF7D9F870BD26
:101060000010024000093D00A0290008FEB505005F
:101070007ED0F74CE7680C20E668074001200004AA
:1010800006402878C00747D0082F05D00C2F0AD17A
:1010900001200004864206D1206880033CD56868A0
:1010A0000028E5D038E0012069680004814203D1BE
:1010B00021680143216011E0052301221B049204F1
:1010C0009942216802D111432160F1E781432160F7
:1010D00021680140009120689043206068680028E2
:1010E0000DD0FFF7A5FD009005E0FFF7A1FD0099E9
:1010F000401A64287ED820688003F6D50CE0FFF7FC
:1011000097FD009005E0FFF793FD0099401A6428D1
:10111000F0D820688003F6D4287880075DD5E86889
:10112000810604D5226820210A43226088430923CE
:10113000042F0DD00C2F01D1002E09D000283CD057
:101140002168994301432160FFF772FD064628E0BC
:101150002168490701D500288AD061681F22120240
:1011600091432A691202114361602168994300E0AA
:1011700091E101432160FFF73DFFE16809060A0F95
:10118000B449895CC840B4490860B4480068FFF7B6
:1011900071FD002874D120E0FFF74AFD801B022872
:1011A000A8D820684007F7D560681F210902884346
:1011B00029690902084360600FE020684008400088
:1011C0002060FFF735FD064604E0FFF731FD801B88
:1011D00002288FD820684007F7D42878C00661D548
:1011E000002F0DD0A86900284BD02068FF210131C5
:1011F000084300E0C6E02060FFF71AFD06462DE038
:101200002068800502D5A8690028A5D0606807215C
:1012100049038843296A084360606068297F0002A7
:10122000000A090608436060286A410B0120C003D8
:10123000491C8840E16809060A0F8649895CC84054
:101240008549086085480068FFF714FD002817D11C
:1012500028E0FFF7EDFC801B0228A1D8206880055C
:10126000F7D56068072149038843296A084360600D
:101270006068297F0002000A09060843606011E0E7
:10128000E1E02168FF20013081432160FFF7D0FCBD
:10129000064604E0FFF7CCFC801B022872D82068C9
:1012A0008005F7D428786E4E000724D56869002899
:1012B000306910D0012108433061FFF7B9FC00907C
:1012C00005E0FFF7B5FC0099401A02285AD83069AA
:1012D0008007F6D50FE0400840003061FFF7A8FC1A
:1012E000009005E0FFF7A4FC0099401A022849D8B5
:1012F00030698007F6D42878400765D50020029031
:10130000A06BC00006D4A06B012109070843A063AD
:101310000120029053480168C90511D40168821563
:1013200011430160FFF784FC009005E0FFF780FCAB
:101330000099401A642825D84A480068C005F5D5A8
:10134000FF20AA680130824203D131690143316133
:1013500011E001218902002A07D005231B029A42CD
:1013600003D132690A433261EFE732698243326165
:10137000306988433061A86800280FD0FFF758FC17
:10138000009007E05EE0FFF753FC0099411A3648F1
:10139000814257D830698005F5D50DE0FFF748FC4C
:1013A000009006E0FFF744FC0099411A2E48814264
:1013B00048D830698005F5D40298002804D0A06B85
:1013C000012109078843A063686A002865D00C2FB3
:1013D0004CD0012636060228206805D0B043206094
:1013E000FFF726FC05462FE0B0432060FFF720FC06
:1013F000074604E0FFF71CFCC01B022822D8206827
:101400008001F7D4E96AA86AE2680843296BFD23E2
:101410001B049A4311430843E06020683043206076
:10142000FFF706FC054604E0FFF702FC401B02281C
:1014300008D820688001F7D52FE0FFF7F9FB401BA3
:10144000022801D90320FEBD20688001F5D424E0E4
:101450000010024090290008180000201000002011
:101460004010024000700040881300000128EAD0BC
:10147000E06801210904AA6A014091420BD10F21C1
:101480008904EA6A0140914205D103218905084097
:10149000296B884201D00120FEBD0020FEBDF8B5B9
:1014A0000546044620352878012819D001202870E7
:1014B000022068702168CA2048622168532048626F
:1014C00020688168012292029143816020688168CE
:1014D000120191438160FFF7ABFB064600270FE046
:1014E0000220F8BDFFF7A4FB811B7D20C0008142D4
:1014F00006D92168FF204862032068702F70F8BD6C
:101500002068C0684007EDD52168FF2048620120AF
:1015100068702F700020F8BDF7B5044636487D216D
:1015200082B009020068FEF778FF02467D21C900FB
:101530004A432046203000920178012954D00121ED
:101540000170022141702368CA2159622368532126
:10155000596221688B68FF255E050023002E06DA9C
:10156000009E761E009641D0CE687607F8D48E682D
:101570000127BF02BE438E602168CE6880273E40AF
:101580001E4FF619CE6000922168009A521E0092FA
:101590002CD0CA685207F8D58A68D208D2008A606F
:1015A00021688A68049E32438A60226803995161E7
:1015B00013490E680122120516430E608E68164309
:1015C0008E6021688A680126B60332438A602168EA
:1015D0008A68361132438A6021684D620121417068
:1015E0000370002005B0F0BD0220FBE74D6203212F
:1015F000417003700846F5E7180000207FFBFFFFED
:10160000000401400149012048707047000000209B
:1016100010B5044601200B4900054861216888681F
:1016200040040BD5C868400508D5C8688022104022
:10163000054A8018C8602046FFF7E4FF01202034E7
:10164000607010BD000401407FFBFFFF70B5040017
:1016500005D0254620356878002802D006E0012014
:1016600070BD00202870204600F046F80220687007
:101670002068C168C943C90637D5CA2141622168BB
:1016800053204862204600F057FB002827D12068ED
:101690008168184A11408160216888686268A3697E
:1016A000104322691A43104388602168E06808618A
:1016B000206801692289120411430161204600F06B
:1016C0005EFB00280BD12168CA6C92089200CA64A4
:1016D0006269E16911432268D36C1943D1642268BD
:1016E000FF215162002801D070BD002001216970E6
:1016F00070BD0000BFFF8FFF10B500680849884229
:101700000DD10848016901229204114301610022B0
:1017100011460220FFF7E8FA0220FFF7D9FA10BDC0
:10172000002800404010024070B5044621680A4875
:10173000C860FFF77DFA7D260546F60006E0FFF754
:1017400077FA401BB04201D9032070BD2068C06801
:101750008006F4D5002070BD5FDF010002480169FA
:10176000022211430161704700E000E0F8B5040077
:101770000ED0FF27606A0537002500280AD02561B2
:10178000656126464036A562707C002807D00AE0D5
:101790000120F8BD6068B842F3D0E561F1E7357427
:1017A000204600F03BF80221717420680268402353
:1017B0009A43026060682123A2689B0238401A4065
:1017C0001043E2688B021A40104322690A40217DCF
:1017D0001043C907C90F0843A1699A101140084373
:1017E000E169382211400843216A802211400843F0
:1017F000A16A92011140084321680860A069042190
:10180000000C0840616A10221140084321684860BA
:101810006565012070740020F8BD000010B586B029
:10182000044614216846FEF7F6FD104920688842F8
:1018300019D10F48416B821411434163C16A0122DF
:101840001143C162C06A002110400590E020009061
:101850000220019003200390029104910520694623
:101860000007FFF715F906B010BD00000030014079
:1018700000100240FFB5054604464035287C00278D
:1018800081B01646012809D001202874FFF7D0F94D
:101890000090687C012804D0022797E0022005B060
:1018A000F0BD0298002874D0002E72D00320687416
:1018B0000020606502992163A686E686A063A08762
:1018C000E087606420640122A068D2034021904236
:1018D00008D1206802688A430260206802680B020F
:1018E0001A43026020680268520602D402680A4362
:1018F00002600121E068C9028842606828D100289E
:1019000001D0012E1ED1206B21680088C86006E03E
:1019100020688168890709D5216B0988C160206B1F
:10192000801C2063E08E401EE0860BE0FFF780F90C
:101930000099411A0498814202D3401C02D005E06C
:10194000002803D0E08E0028E2D128E003273BE006
:10195000002801D0012E1FD1206B21680078087368
:1019600006E020688168890709D5216B0978017331
:10197000206B401C2063E08E401EE0860CE0FFF7E9
:1019800057F90099411A0498814203D3401C03D0AF
:10199000DCE717E00028D9D0E08E0028E1D120460E
:1019A000009A049900F00AFA002801D0202060650E
:1019B000A068002803D12068C16880680090606D2D
:1019C000002801D0012701E001206874002028745C
:1019D000384664E7094910B5401E884201D9012004
:1019E00010BD074C60610321081F00F0DFFB0020E1
:1019F000A06107202061002010BD0000FFFFFF0054
:101A000000E000E002480169022291430161704751
:101A100000E000E0FEE7FFB585B01868029010888E
:101A200001900020144607460646039053E0002527
:101A300030E0002F07D1019A0299895C0391511C73
:101A400089B2802701910399394202D0401C80B2AB
:101A50001DE000281BD00F9900910E990E9A41436A
:101A600089B28C46062161560E9B89195143069A0C
:101A700089180522A25689B25219101A0E9A50439B
:101A8000059A801880B2624600F07FF800207F0837
:101A90006D1CEDB2A178A942CBD8002819D00F99BE
:101AA00000910E990E9B41438AB206216156891915
:101AB0005943069BC9180523E35689B25B19181AC6
:101AC0000E9B5843059BC01880B20E9B00F05DF83A
:101AD0000020761CF6B2E178B142A8D809B0F0BD7A
:101AE00001B5002240210548FFF79CF87D23DB006B
:101AF000012269460248FFF7BDFE08BD0004005000
:101B00009C000020FFB505B20EB207CB87B004AB36
:101B100007C32F46002429E00998005D0A282CD02D
:101B20006946097E81421FD86946497E81421BD39E
:101B30000D2819D06946097E059A401AC00011186F
:101B4000082202A8FEF708FC109811990191009054
:101B500004AB02AA31462846FFF75DFF6946087BC1
:101B600010994843401905B2641CA4B20998FEF7C5
:101B7000D1FBA042D0D80BB0F0BD6846807E109952
:101B80003D464843801906B2EEE71CB5049CCB18CD
:101B9000821800949BB292B2019400F09BF91CBD94
:101BA000F0B587B000250595142168460695FEF727
:101BB00032FC22482049C563016009218904416043
:101BC000102181600124C560072104618163014601
:101BD00020310C704D70FF22C232856242620D735B
:101BE000042184618E0244630663C4614161FEF78F
:101BF00023FE002801D072B6FEE7114F05A90F4859
:101C000005970696FEF766FD002801D072B6FEE73E
:101C100003208005009001976846047264200390B9
:101C2000694604950548FEF707FD002801D072B605
:101C3000FEE707B0F0BD0000002401401C000020BA
:101C40001000001030B587B014216846FEF7E3FBA2
:101C50001448C26A04210A43C262C26A0A40059259
:101C6000C16A01221143C162C16A11400591C26A71
:101C700002210A43C262C06A0324084005900A4850
:101C800000256A4631C2052069460007FEF700FFBD
:101C9000C2206A4631C269460448FEF7F9FE07B021
:101CA00030BD000000100240030600000004005098
:101CB00010B50F480D4901607F228260002141600C
:101CC00001614161FF228161C260C161FFF7BEFC19
:101CD000002801D072B6FEE7042201210448FFF774
:101CE0001BFC002801D072B6FEE710BD00280040A2
:101CF0007800002010B50E480C490160FF21053125
:101D0000416000218160C16001614161C1610122C6
:101D1000016252024162826181620721C162FFF762
:101D200025FD002801D072B6FEE710BD003001404D
:101D30009C000020FEE77047F8B5044600680025C7
:101D4000C168490619D4C16880221143C160FEF7F9
:101D50006FFF27460646203709E0FEF769FF811B23
:101D60007D20C000814202D90420787001252068BE
:101D7000C068400601D4002DEFD02846F8BD70B5EC
:101D8000044600680025C16880229143C160206834
:101D90008068800608D42046FFF7C6FC002803D0E0
:101DA0000420203460700125284670BD10B502481B
:101DB000FFF72EFC10BD000078000020F8B50446A7
:101DC00015480E46154613490068FEF726FB7D218F
:101DD000C900484300906068C11FFD390ED13346E9
:101DE000002280212046009500F018F800280FD02E
:101DF000606D2021084360650320F8BD009800282D
:101E000006D0401E009020688068C0430006F5D5CB
:101E10000020F8BD00366E0118000020FFB581B02B
:101E20001E4604460A9DFEF703FF401B351AFEF7C7
:101E3000FFFE0746264800684001000D684339E070
:101E4000701C38D0FEF7F4FEC01BA84205D2002D4E
:101E500003D0009800282BD02BE020684168E022B6
:101E6000914341606068C11FFD390CD10121A06818
:101E7000C903884202D04911884204D12068016810
:101E80004022914301600120A16A4003814207D1B1
:101E900021680A6882430A6021680A6802430A606E
:101EA00001204034607400202074032005B0F0BD90
:101EB0000025401E0090206881680298884305D064
:101EC000002103988142BBD10020EFE70121F8E710
:101ED00018000020F8B507461C4615460E46262079
:101EE000FFF7FEFD0120FFF7FBFD2220FFF7F8FDC5
:101EF000F8B2FFF7F5FDF0B2FFF7F2FDE8B2FFF739
:101F0000EFFDE0B2FFF7ECFD01200699FEF782FB42
:101F1000044601200799FEF77DFB05462004C00E0C
:101F2000FFF7DEFD6005800EFFF7DAFDE006C00E6C
:101F3000FFF7D6FD2804C00EFFF7D2FD6805800E1E
:101F4000FFF7CEFDE806C00EFFF7CAFDF8BD10B5DD
:101F5000AE20FFF7C5FD8120FFF7C2FD9120FFF7FE
:101F6000BFFD8220FFF7BCFD5020FFF7B9FD8320A5
:101F7000FFF7B6FD7D20FFF7B3FD8720FFF7B0FD2B
:101F80000620FFF7ADFD8A20FFF7AAFD6420FFF7CA
:101F9000A7FD8B20FFF7A4FD7820FFF7A1FD8C2083
:101FA000FFF79EFD6420FFF79BFDA020FFF798FD43
:101FB0007220FFF795FDA120FFF792FD0020FFF7AB
:101FC0008FFDA220FFF78CFD0020FFF789FDA420E4
:101FD000FFF786FDA820FFF783FD3F20FFF780FD78
:101FE000AD20FFF77DFD8E20FFF77AFDB020FFF7D3
:101FF00077FD0020FFF774FDB120FFF771FD312060
:10200000FFF76EFDB320FFF76BFDF020FFF768FDD3
:10201000BB20FFF765FD3A20FFF762FDBE20FFF70A
:102020005FFD3E20FFF75CFD2E20FFF759FDAF203E
:10203000FFF756FD00213F235F22084600F004F819
:102040000120FEF713FD10BDF8B507461C461546E6
:102050000E462520FFF744FDF8B2FFF741FDF0B230
:10206000FFF73EFDE8B2FFF73BFDE0B2FFF738FDBA
:10207000F8BD70471CB50B48002141608160FF200E
:1020800000020090402360220846FFF77EFD0649CB
:10209000012001910090054B05A23C210A20FFF789
:1020A00031FD1CBD00000020FFFFFF008429000857
:1020B00030203A203000000010B5FEF7BFFD10BD03
:1020C00030B599B034216846FEF7A5F914210DA862
:1020D000FEF7A1F9182112A8FEF79DF91D48016825
:1020E0000324E402A143C21489180160FEF700FE34
:1020F00019480169A143016106200090FF200130C9
:10210000029000241020099401250490039568464C
:10211000FEF7ACFF002801D072B6FEE70F200D904D
:102120000F94109400210E9511940DA8FEF794FEC3
:10213000002801D072B6FEE720201290C002139052
:1021400012A8FEF7DDFD002801D072B6FEE719B037
:1021500030BD000000700040401002407047000099
:10216000054881683B2902D0491C8160704741685D
:10217000491C41600021F8E700000020F8B5040C7C
:102180008BB2264682B25E430D0C1046370C584384
:10219000360480190021794116466E43370C360407
:1021A0008019794126466E438919F8BD8307FF22BD
:1021B000DB0E9A408907090E9940002808DB830846
:1021C00009489B001B181868904308431860704723
:1021D0000007000F0838830804489B001B18D869C3
:1021E00090430843D861704700E400E000ED00E050
:1021F000FEF72CFDFFF764FFFFF724FDFFF77AFDE4
:10220000FFF7CEFCFFF754FDFFF7A1FE6420FEF7B9
:102210002DFC00250D4CFFF7F5FB042201210C4895
:10222000FFF77AF90A48FFF73AF9FFF749FFFFF796
:1022300095FA2078002802D02570FFF71BFF607800
:102240000028E8D06570FFF78BFFE4E7000000206E
:1022500078000020FFEA03DEF720110904824FF91D
:102260001089FF2412090C80107CD6D2D0F0381EC1
:10227000179393D67C1038433C39218A0C5065392A
:10228000CB20B905884C446421C00E00C8064032FA
:1022900001A0077831878846863430C1C717CF0040
:1022A000FE0888846318C6108208208208210C6307
:1022B00018C4222200639ADC72B608080402010FD7
:1022C000F84020100800D8F0F0088422108C423129
:1022D000001C3198D83C1E0F0783C1E0D8C461C0F0
:1022E000138C6318C6318C67803C4E860606040C3E
:1022F00008102041FE3CC606041C3E0703030306EB
:10230000F804187164C9A346FE1830600F10203C11
:102310000E070303030204F8071C306060DCE6C309
:10232000C3C343663C7F8202020404040808081009
:10233000103C8F1E3E4F0636C78F1B33C03C66C213
:10234000C3C3C3C3633F06060C3860F00FD8000355
:102350002801870E1C0C0380700E0080FF80000097
:102360000FF8801C01C01C01C0E0E0E0C000791A39
:10237000183060830410204003000F838C60260215
:10238000C79CC9D89D99D926EC6003040F80020030
:102390001001C016009804C04303F8206103181D03
:1023A000E1F0FF861CC198330C7E0C318330660C43
:1023B000C37FC01F261D81E01C0180300600C00CB9
:1023C00000C18FC0FF031C30630730330330330379
:1023D00030330630CFF0FF98260180611FC6118090
:1023E0006018160FFEFFB0580C0613F984C0603059
:1023F000181E001F230E602600C00C0FC06C06C004
:1024000066063060F8F1EC198330660CFF983306ED
:1024100060CC198378F0F6666666666F3C61861854
:102420006186186DBCF3E6086106206407806C06BF
:102430006063061860CF3FF018060180601806013F
:10244000806018160BFEF00E7038E071E162C2C5B4
:10245000C989931326238C4718843388F0E0EE094A
:10246000C12C25C49C91921A41C8190370201F06E3
:102470003183202C0780F01E03C068098318C1F047
:10248000FE31986C361B19F8C06030181E001F060C
:102490003183202C0780F01E03C068198318C0E028
:1024A0000E00E007FE0C618630C618C61F837067F9
:1024B0000C718778701D31984C0780E01C0701A0D3
:1024C000D8CBC0FFF8CE188300600C018030060026
:1024D000C0180780F0EC0981302604C09813026010
:1024E0004C08C20F80F877023023041841840C8016
:1024F000C8070070020020FBE7B0C08C208618419E
:102500008C40CB2065901A700E38031C01040082A9
:1025100000FCF98306101900D003001C013011C122
:10252000860819E3F0F8F6063041881D00D0060051
:10253000600600600600F03FCC11060180700C03BD
:1025400000E0380605C17FE0FB6DB6DB6DB8821098
:10255000821086108610EDB6DB6DB6F8181C342696
:102560006242C1FF808420799830E6D9B33F207061
:10257000180C060371CCC361B0D86C63E03CCF0685
:102580000C18189E010380C06031D99D86C361B0CC
:10259000CC63F03C46FEC0C0E1623C1E4183061E97
:1025A000183060C1830F003C19F6318C1E080401FD
:1025B000FC40B02E11F82070180C060371CCC663D5
:1025C0003198CC6F786002E66666F01800338C6351
:1025D00018C6318B802070180C06033D88D87836D9
:1025E000198C6F782E6666666666F0EE71CE66317F
:1025F00098C663198C6631BDEFEE3998CC663319F5
:102600008DEF3E31B0783C1E0D8C7CEE39986C36E7
:102610001B0D8CFC6030181E003D31B0D86C361B91
:102620008CFE030180C0F06DC61861863C76385878
:102630003E38FE2798C6318C38E73198CC6633197E
:102640008C7FF3612232141C0808EF36616222325B
:1026500035419C188108F7120E0301C12109CFF3FF
:1026600061623234141C08080810E0FD1860830C05
:1026700070FE198C6318C4618C6318C3FFF0C31813
:10268000C631843318C631987024C1C000000000E0
:10269000050001000000020C0602F500030005041D
:1026A0000701F5000600090C0900F5001400080EEA
:1026B0000901F40022000D0C0F01F50036000D0D8C
:1026C0000E01F4004C0002040401F5004D00050F5A
:1026D0000601F5005700050F0600F5006100060829
:1026E0000903F500670009090A00F80072000203F7
:1026F00004020000730004010601FD0074000202E0
:102700000501FF007500050C0500F5007D00090DB1
:102710000900F4008C00050D0902F4009500080C76
:102720000901F500A100080C0900F500AD00070C37
:102730000901F500B800080C0900F500C400080DF7
:102740000901F400D100080C0900F500DD00070DB7
:102750000901F400E900080E0901F400F70002087D
:102760000501F900F900030A0501F900FD00090956
:102770000A01F800080109050A01FA000E010A0918
:102780000A00F8001A01070D0801F40026010C0DDB
:102790001002F4003A010D0C0D00F5004E010B0C77
:1027A0000B00F5005F010B0C0C01F50070010C0C27
:1027B0000D00F50082010A0C0B01F5009101090CD6
:1027C0000A01F5009F010C0C0D01F500B1010B0C85
:1027D0000D01F500C201040C0601F500C801060C4C
:1027E0000700F500D1010C0C0D01F500E3010A0C06
:1027F0000B01F500F2010F0C1000F50009020B0CA3
:102800000D01F5001A020B0D0D01F4002C02090C4C
:102810000A01F5003A020B100D01F40050020B0CF6
:102820000C01F5006102090C0A00F5006F020B0CA7
:102830000B00F50080020B0C0D01F50091020C0C51
:102840000D00F500A302110C1100F500BD020D0CE6
:102850000D00F500D1020C0C0D00F500E3020B0C8D
:102860000B00F500F402030F0602F500FA02050C56
:102870000500F5000203030F0601F5000803080731
:102880000800F5000F030901090002001103040309
:102890000500F500130307080801F9001A03090DE4
:1028A0000900F400290307080800F9003003090DA6
:1028B0000900F4003F0308080800F9004703070D6A
:1028C0000701F40053030A0C0800F9006203090D24
:1028D0000900F4007103040B0501F6007703050FEE
:1028E0000600F6008103090D0901F4009003040DB0
:1028F0000501F40097030E080E00F900A50309086E
:102900000900F900AE0309080900F900B703090C32
:102910000900F900C503090C0900F900D3030608F2
:102920000600F900D90306080701F900DF030509CD
:102930000500F800E50309080900F900EE0308089E
:102940000800F900F6030C080C00F900020409085D
:102950000900F9000B04080C0800F9001704070827
:102960000701F9001E0405100901F4002804010CF8
:102970000401F5002A0405100903F50034040903D5
:102980000900FB00542200088C260008207E160057
:10299000000000000000000001020304060708090F
:1029A000030406080C10182030000000CC29000891
:1029B000000000201C00000004010008E8290008B5
:1029C0001C0000203C07000020010008000000005F
:1029D00000000000000000000100000004000000F2
:0829E0000000000000002000CF
:04000005080000C12E
:00000001FF
