:020000040800F2
:100000005807002075010008631F0008B11D000893
:1000100000000000000000000000000000000000E0
:10002000000000000000000000000000952700080C
:100030000000000000000000651F0008972700086E
:10004000A5010008A5010008691F0008A501000816
:10005000A5010008A5010008A5010008A5010008E8
:1000600000000000A5010008A5010008A501000886
:10007000ED040008A501000800000000A50100082B
:100080000000000000000000000000000000000070
:10009000A50100080000000000000000A501000804
:1000A00000000000A50100080000000000000000A2
:1000B000A5010008A50100080000000000000000E4
:1000C00000F002F800F046F80CA030C808382418F8
:1000D0002D18671EA246AB4654465D46AC4201D180
:1000E00000F038F87E460F3EB6460FCC012633426C
:1000F00000D0FB1A3343A246AB461847C433000076
:10010000E4330000103A02D378C878C1FAD8520715
:1001100001D330C830C101D504680C6070470000BD
:100120000023002400250026103A01D378C1FBD813
:10013000520700D330C100D50B60704710B5642959
:1001400002D100F09BF810BD002010BD1FB51FBDEF
:1001500010B510BD00F097F91146FFF7F7FF02F058
:100160006FFB00F0AFF903B4FFF7F2FF03BC00F040
:10017000B5F900000F4880F308880F480168090EA0
:100180000E4A914205D10E480E4901600E480F49B2
:1001900001600F4880470F480047FEE7FEE7FEE793
:1001A000FEE7FEE7FEE700000B480C490C4A0D4B4A
:1001B0007047000058070020040000001F000000E6
:1001C0003410024001000000000001400000000067
:1001D0003D280008C10000085801002058070020F1
:1001E00058030020580300200FB41CB5074B06AA83
:1001F0007B4469460090059800F019F90020694693
:1002000000F028F91CBC08BC04B0184761020000CB
:10021000F8B50E460446002020622046E168884773
:10022000002829D0252802D06268A16820E0E16872
:1002300020460027884705001ED028464138192847
:1002400002D80127FF022035324620462760294682
:10025000FFF774FF002808D0012804D0F61DF60827
:10026000F6000836D9E7361DD7E762682846A16848
:100270009047206A401CCFE7206AF8BDF7B50025FB
:1002800075291068009914A611D0C046C0460028F0
:1002900002DA404211A608E0009909688A0701D5F0
:1002A0000FA602E0490704D50EA6012501E0C046CD
:1002B000C046009F0024243704E000F0D0F830311D
:1002C0003955641C0028F8D12B4632462146009847
:1002D00000F04FF8FEBD0000000000002D000000FF
:1002E0002B0000002000000030B5441C03E0017822
:1002F000401C00290DD08107F9D10B4BDD0104C84A
:10030000D11A91432940FAD0001B0A0603D0C01E1F
:1003100030BD001B30BD0A0401D0801E30BD090273
:10032000FCD0401E30BD00000101010101E004C00D
:10033000091F0429FBD28B0701D50280801CC90745
:1003400000D00270704700290BD0C30702D00270A2
:10035000401C491E022904D3830702D50280801C59
:10036000891EE3E70022EEE70022DFE770477047CF
:100370007047FFB504460D4681B0243000902168D7
:10038000880604D51022E0699143216000E0012035
:10039000A84201DD471B00E000270498A1697A19F3
:1003A0001018081AA0612078C00602D42046C04662
:1003B000C046002608E003986268A168805D904707
:1003C000206A401C761C206204988642F3DB207869
:1003D000C0060AD52046C046C04606E06268A1684D
:1003E00030209047206A401C206238467F1E00283B
:1003F000F4DC07E000986268A168405D9047206ADD
:10040000401C206228466D1E0028F3DC2046C046B2
:10041000C0462078000602D5022005B0F0BD0120BC
:10042000FBE7000001694A1C02610878704700B5CB
:100430008FB0029100210591054901937944039100
:10044000114604906846FFF7E3FE0FB000BD0000C0
:10045000E5FFFFFF0A681070521C0A6070470146F2
:100460008008081A02091018020A1018020C101845
:10047000C008820012185200891A01E0401C0A3993
:100480000A29FBD27047754600F024F8AE460500F5
:1004900069465346C008C000854618B020B5FFF72E
:1004A00083FE60BCB64600260027C0C5C0C5C0C5D7
:1004B000C0C5C0C5C0C5C0C5C0C5403D490849008C
:1004C0008D46704710B50446C046C0462046FFF72B
:1004D0004AFE10BD00487047100000200149182056
:1004E000ABBEFEE7260002007047000080B5024860
:1004F00000F01AF980BDC046A000002070B582B09F
:1005000004460068816803220A40012A02D101687A
:10051000C90747D18168254A11420AD0606D102170
:1005200001436165A06D01252843A065284602B0FE
:1005300070BD816801220A4382607848006878496A
:1005400002F010FB01900198002817D00198401E7E
:1005500001900198002811D00198401E0190019847
:1005600000280BD00198401E01900198002805D06A
:100570000198401E019001980028E7D100F096FBF9
:10058000064620680068002500E00068C007CDD15D
:1005900000F08CFB811B20680B29F6D30168C9078A
:1005A000F3D1BBE70025284602B070BD17000080DC
:1005B00070B502465020105C012801D1022070BDA8
:1005C000134650331468A068400729D4087A401EA7
:1005D00042424241D00162688025AA4310186060FF
:1005E000E068144A0240E2601F20800624C90540EA
:1005F0001543E0682843E060E068E268256A0E4E33
:100600002E4026628008062528404E688640300429
:10061000206290082840896881402034002003E04F
:10062000543201202021144600221A7022680A4305
:10063000226070BDFFFF3F8300F000F070B582B014
:100640005022825C012A02D1022002B070BD044611
:100650005034026893685B0718D40E6849682D48C7
:100660003040E74D2C4B994219D1916A81439162F8
:10067000700304D50120C005296881432960B003B7
:1006800019D5012081052868884313E0416D202297
:100690000A43426501200021217002B070BD916AB9
:1006A0000143916270030BD4B00304D5012081058E
:1006B00028680843286000200021217002B070BD26
:1006C0000120C005296801432960144800681449C5
:1006D00002F048FA0A214143019101980028E3D031
:1006E0000198401E019001980028DDD00198401E1D
:1006F000019001980028D7D00198401E01900198E0
:100700000028D1D00198401E019001980028E7D11F
:10071000CAE7C046FFFF07000110000008000020E4
:1007200040420F0070477047F0B581B00446006842
:10073000056804212A460A40534253414668314025
:100740004A424A411A430123012A09D10822324070
:10075000514251412A071A4600D50A46002A39D18A
:10076000009321465431626DD20604D40122520214
:100770000B6813430B60C2681205920F20D1082248
:100780002A40534253412022A75C002F009F00D1F2
:100790001F46002F14D183685B0708D442680C23DE
:1007A0009A434260FF2202320868904305E0606D80
:1007B0001043606521465831A06D012202430A6052
:1007C0002046FFF7AFFFA0690128009B02D02068F8
:1007D0000C210160802731463940484248412906B2
:1007E000194600D5014600290DD101200004616D94
:1007F00001436165204600951D4600F005F92B4632
:10080000009D2068076010273E4070427041E90655
:1008100003D4002B04D001B0F0BD0346002BFAD165
:10082000206B002803D02068C168C90709D0A06DDB
:1008300002210143A165206807602046FFF773FF8E
:100840002068076001B0F0BDF0B583B00125002835
:100850003ED0044606465036406D002803D0606DF9
:10086000C00609D52EE000203070A065204600F0BB
:10087000D1F8606DC00625D420688168490721D46D
:1008800081214900626D8A43911C61658168032260
:1008900011405B4B012902D10168C9072ED1616863
:1008A0000125EE07B14205D0AD07A94202D0950758
:1008B000A94210D1920705699543056102690A436F
:1008C000026113E000203070606D1021014361650A
:1008D000284603B0F0BD0269AA4302610F229204C8
:1008E0001D6895431D601A680A431A60C168182282
:1008F0009143C160A168C2680A43C26022462032A7
:1009000001214D061E68AE431E60656B6D061E68B4
:100910002E431E608368DB0003D40B0785681D43EC
:1009200085600291C368374D1D40C56023699B1ED9
:100930005D425D41AB00E6681E4315786B033343AF
:10094000266B1E43137B5B003343A669E769B6033E
:100950001E43FB033343C6681E43C660676A0646F0
:100960000C36FF230193C2339F4216D151780129DF
:10097000029F1BD00269E16B012929D101998900ED
:100980008A430261234640330ECB0A431A4301696E
:100990001143016102693A431EE03368A16A1943B9
:1009A0003943316051780129029FE3D1002D07D0EE
:1009B000616D20220A436265264658363A4600E0B9
:1009C0003A043168114331600269E16B0129D5D0E5
:1009D000D10702D00269BA430261416907229143FB
:1009E0004161A16B42690A4342610025A565606DC2
:1009F0003843022188436065284603B0F0BDC046F5
:100A0000082701401902FEFF0148012101707047CB
:100A100070000020B0B586B00024059404940068EE
:100A20001349884201D006B0B0BD01204102114AED
:100A300093680B4393601168014311601168014092
:100A4000009103940320029010200190009805204B
:100A5000000701A900F056F80C2528462146224639
:100A600000F080F9284600F071F906B0B0BDC0462C
:100A7000002401402C10024070B5044600688168D3
:100A8000022049070FD45021615C01290BD0254673
:100A9000503501262E70E069012805D02046FFF769
:100AA0002DFD002800D070BD606D0D490140300261
:100AB000081860650020A06521681C230B60287061
:100AC0004A686469082C04D104239A434A604B683D
:100AD00018221A434A608A68042313438B6070BD4E
:100AE000FEF0FFFFB0B5044600F0E0F80546601CDC
:100AF00002D08E480078041900F0D8F8401BA042BC
:100B0000FAD3B0BDF0B589B00D68002D00D1BBE0BF
:100B100002465E48824201D0062000E0022000909A
:100B200000231E461C46059101920CE03243089EAC
:100B300057480260641C0D682846E0409B1C361D27
:100B4000002800D1A0E001200690A04005400395B8
:100B5000F0D00294089603252E469E40F2434C683E
:100B600027462F407E1E012E0792049411D80E4670
:100B700001998D6815400A46F6689E402E438E60A6
:100B8000E506ED0F029CA5404E6886432E434E605D
:100B900007E0032F019A029C03D12F460599089E76
:100BA0001FE0D0680799084005998D689D4005436E
:100BB000D560022F089E14D11C2030400F218140A7
:100BC000E508AD0055192E6A8E4305990A698240E1
:100BD0003243089E05992A62019A486803270490C7
:100BE00007409F4010680D4619461346079A10406B
:100BF0001A460B4629463843106004988003800F3C
:100C000098D051490868069D284308600C20304060
:100C10000F258540032126468E4311461D4FF2596C
:100C2000AA43F51905263607B14206D01A4EB1423D
:100C3000009F059903D1069F01E000270599874091
:100C400017432F60124882684868C50202D5039E88
:100C5000324301E0039EB2430D4DAA60EA6885026B
:100C600001D5324300E0B243094DEA606A6885036A
:100C700001D5324300E0B243054D6A602A68C003E3
:100C800000D553E7B24352E709B0F0BD0008005069
:100C9000000401400800014000040050002A02D076
:100CA00018228150704728228150704705480068FB
:100CB0007047C0461D48007802490A68101808604D
:100CC0007047C0465401002080B5084801684022A2
:100CD0000A430260032000F00BF8002801D0012035
:100CE00080BD00F027F8002080BDC04600200240F3
:100CF00070B504467D20C0000C4E317801F032FF03
:100D000001460B48006801F02DFF01F031F8012584
:100D1000032C08D8002806D10025E84321462A469E
:100D200000F020F87460284670BDC0460000002026
:100D300008000020044801680122114301601107E6
:100D400042680A434260704734100240002805D4CC
:100D50001F21084001218140014801607047C046C1
:100D600000E100E0002805D40322034693430A4A29
:100D70009A1803E00C220240064BD2188007C00EDE
:100D80008901C9B28140FF2383401068984308431A
:100D90001060704714ED00E000E400E00120000264
:100DA00062490A6802430A607047C046F0B587B0DE
:100DB0000768B9065C4C73D5069001252907183CD5
:100DC00020680840059002D1206808432060039401
:100DD00004912F02554C2068C00511D42068384377
:100DE0002060FFF763FF06462068384208D1FFF70E
:100DF0005DFF801B6428F7D90325284607B0F0BDA6
:100E0000032426040698416808463040464B1A469B
:100E1000503A029212684A409102890F05D0B042BE
:100E200003D1029909688903E7D4009419680196EF
:100E3000314014D0814212D00698007880060ED539
:100E4000394B1868E9041A680A431A601A688A4319
:100E50001A600146019A91431960384253D10698AD
:100E60000768B906304C13D542681146019B1940FA
:100E700099420AD1009B1B051A4003231B05029DC2
:100E80002C689C4314432C60274C22680A43226040
:100E90000599002904D1039B1968049A91431960AC
:100EA000B90707D479070ED4390716D400253906B7
:100EB000A3D51DE0211F0A680C239A4383681343BE
:100EC0000B607907F0D503218902221F13688B4339
:100ED000C168194311603907E8D503210903221FAE
:100EE00013688B430169194311600025390684D5C5
:100EF00003218B04211F0A689A434069104308604C
:100F0000284607B0F0BDFFF7D1FE05468F4C0648D6
:100F100000688005A3D4FFF7C9FE401BA042F6D9A4
:100F2000009D284607B0F0BD501002400070004000
:100F3000F0B583B00290002846D00E468248006883
:100F4000012101910840B04216D27F49086801256D
:100F5000A843304308607D4CFFF7A8FE07467A4857
:100F600000682840B04207D0FFF7A0FEC01BA04297
:100F7000F5D9032003B0F0BD029800688107744DD5
:100F800006D52968F0229143029A92680A432A60A2
:100F9000C0071CD16C48006801273840B04225D9F1
:100FA00069490868B8430860684CFFF77FFE05464A
:100FB00065480068C00719D0FFF778FE401BA042C3
:100FC000F6D9032003B0F0BD012003B0F0BD0298B4
:100FD000426829460C39012A32D0032A35D0022A28
:100FE00039D109688903019833D538E0029800683F
:100FF0004107574C07D50721090222688A43029905
:10100000C96811432160000708D50720C002216884
:10101000814302980069C0000843206021680807E6
:10102000820F4C487A4412795200974401617F68DC
:1010300038042146083909680904490F884075E0D9
:1010400009684907019804D509E0096889010198F0
:1010500005D403B0F0BD096889050198F9D5296860
:1010600003200190814311432960FFF71FFE0746CB
:1010700002984068354C032811D002281DD0012861
:1010800029D128680C210140042900D182E7FFF70B
:101090000DFEC01BA042F4D9019803B0F0BD286832
:1010A0000C2101400C2900D174E7FFF7FFFDC01BA4
:1010B000A042F4D9019803B0F0BD28680C2101408A
:1010C000082900D166E7FFF7F1FDC01BA042F4D963
:1010D000019803B0F0BD28680007800F00D159E7E0
:1010E000FFF7E4FDC01BA042F5D9019803B0F0BDA5
:1010F00020460C380068C00612D5184816E08A024F
:10110000120F154B9A5C0902890F491C2368DB03F7
:1011100009D420460C380068C00603D4104802E009
:101120000F4803E00D48504301F01CFD21680906FB
:10113000090F0C4A515CC8400B4908600B48006815
:10114000FFF7D6FD03B0F0BD002002408813000079
:101150000C10024000127A00A834000800093D007B
:101160000024F4005A2D000808000020040000208C
:10117000F0B589B0002851D0624EF1680C220A40C7
:101180000692012105910904F76804910F40079028
:101190000078C00710D00698082806D006980C28BA
:1011A00000D0D1E0002F00D1CEE03068800303D51D
:1011B0000798406800284CD007980078800730D402
:1011C00007980078C00647D407980078000761D4D4
:1011D00007990878400700D596E04C6A002C1AD091
:1011E00006980C2800D03AE1012C32D0F068049A1D
:1011F0000240079B996A8A422BD10F218904014042
:10120000DA6A914225D1032189050840196B884289
:10121000059800D027E2002009B0F0BD012009B0F8
:10122000F0BD079BD868810604D5316820221143A0
:10123000316090430699042906D006990C2900D004
:10124000A9E0002F00D0A6E03168490739D5002871
:1012500037D1059809B0F0BD0698002800D1B0E05C
:10126000306807998969002900D1E5E001210A0267
:10127000104330604C02FFF719FD054630682042EC
:1012800000D00DE1FFF712FD401B0228F6D9032024
:1012900009B0F0BD306D07994969002900D1BAE065
:1012A000012108433065FFF701FD0546306D8007D9
:1012B0008ED4FFF7FBFC401B0228F7D9032009B0AE
:1012C000F0BD1F21090272688A431969090211439E
:1012D000716031680922914301433160F168080768
:1012E000820FE2485200C0467A44928852009744E6
:1012F00003000701AB010C0170680004410F049862
:101300008840A1E10010024001221107B06B0840A3
:10131000029002D1B06B0843B063019103921402B2
:10132000D94F3868C00525D4386820433860FFF7A6
:10133000BDFC0546386820421CD1FFF7B7FC411BB5
:1013400003206429F6D98EE10798406805994C047A
:101350000499884209D005210904884200D0B0E0F0
:10136000059880043168014331603068049908436E
:101370003060B6E007988068002800D1F2E00521CF
:101380000902884200D104E1A04200D009E1306D99
:101390002043039A0CE13168002800D1C7E00922FC
:1013A000914301433160FFF781FC054630684007F7
:1013B00000D5CDE0FFF77AFC411B03200229F5D9C7
:1013C00051E130688005079B03D59869002800D15A
:1013D0003FE70720400371688143186A0143716049
:1013E000FF21090672688A43D96909068918716064
:1013F000400B04998140F0680006000F9F4A105C82
:10140000C1409F4801609F480068FFF771FC0028B9
:1014100000D028E1D8E6012188433065FFF746FC7B
:101420000546306D800700D4D2E6FFF73FFC411B34
:1014300003200229F5D916E101210A029043306008
:101440004C02FFF733FC05463068204200D1BBE672
:10145000FFF72CFC411B03200229F5D903E10120F1
:10146000010632688A4332604706FFF71FFC0546D3
:10147000022C0AD13068384200D1B5E0FFF716FCE3
:10148000411B03200229F5D9EDE03068384200D134
:10149000C1E6FFF70BFC411B03200229F5D9E2E06E
:1014A0000720400371688143079A106A08437060FF
:1014B000FF20000671688143D06900064018706003
:1014C00082E63168049A9143316031681140089195
:1014D00008990599890432688A433260002800D14E
:1014E000A0E0FFF7E3FB05463068204200D063E64A
:1014F000FFF7DCFB401B6428F6D9032009B0F0BDE0
:101500003068C0066ED55B489EE08A02120F584BC9
:101510009A5C0902890F491CF368049C234200D09D
:101520008FE03068C00600D58AE0534889E001208A
:1015300081433160FFF7BAFB05463068400700D4AD
:101540003EE6FFF7B3FB411B03200229F5D98AE0F1
:101550001F20000271688143079800690002084358
:1015600070602DE6306DA0433065039A9002316DB6
:10157000814331655402454FFFF798FB0546306DB6
:10158000204225D0FFF792FB411B0320B942F6D938
:1015900069E0039A9002316D01433165306D20435B
:1015A00006E0306DA0433065039A9102306D8843A8
:1015B00030655402354FFFF779FB0546306D204208
:1015C00006D1FFF773FB411B0320B942F6D94AE06D
:1015D00002980028079900D0FFE5B06B019A90436C
:1015E000B063FAE524482FE0FD200004F168814350
:1015F000079B28330DCB084310431843F060244861
:10160000401C316801433160FFF750FB04463068ED
:10161000384200D0FFE5FFF749FB011B03200229F8
:10162000F5D920E0FFF742FB05463068204200D1A3
:10163000C2E5FFF73BFB411B03206429F5D912E00B
:101640000C48504301F08EFAF1680906090F0B4A65
:10165000515CC840824908600A480068FFF748FBAF
:10166000002800D1ACE509B0F0BDC04600127A00F8
:10167000A834000800093D000024F4005A2D000899
:1016800008000020040000200070004088130000C3
:10169000FFFFFF00F0B583B004462020205C012846
:1016A00002D1022003B0F0BD23462033022058703F
:1016B0002068CA214162532141620125A902826842
:1016C0008A43826002931D700195A90382688A4350
:1016D0008260FFF7EBFA05460B4E2168C8680027C9
:1016E000400708D4FFF7E2FA401BB042F5D3216867
:1016F0000323184601E03846019BFF224A62029903
:101700000F704B7003B0F0BDE9030000F0B583B07B
:10171000009201910646524800687D21090201F0BD
:1017200021FA01239C022746183F474302972020B5
:10173000305C012802D1022003B0F0BD31462031D7
:10174000022048703268CA2050625320506290686C
:1017500020424CD155480646803695683540956004
:10176000D568EDB20543D56002970298401E0290FD
:1017700003260298002861D0D06840071BD4029845
:10178000401E0290029800285AD0D068400712D418
:101790000298401E02900298002853D0D06840075B
:1017A00009D40298401E029002980028304650D07A
:1017B000D0684007D9D590680725A8439060906805
:1017C000009D28439060019850611805254D2E68B2
:1017D00006432E60AE680643AE60980395680543E5
:1017E000956090682043906000201E4631E002988A
:1017F000401E029003260298002825D0D06840079A
:10180000A8D50298401E0290029800281ED0D068E9
:1018100040079FD50298401E02900298002817D0DA
:10182000D068400796D50298401E02900298002882
:1018300030460ED0D0684007D9D48BE7304608E058
:10184000304606E0304604E0304602E0304600E034
:101850003046FF23536200220A704E7003B0F0BD81
:101860000800002000040140014801214170704738
:1018700070000020B0B50446012528050A4908601B
:101880002068816849040BD5C168490508D5C1683D
:10189000064A0A43A9028A43C2602046FFF7E4FFD2
:1018A00021202554B0BDC046140401407FFBFFFF3A
:1018B000F0B581B0012400286BD0054607462037DB
:1018C0007878002804D100203870284600F072F89B
:1018D000022078702868C168C90657D4CA214162BD
:1018E00053214162C1684906009415D4C168802221
:1018F0000A43C260FFF7DAF906462868C16849065C
:101900000AD47D20C400FFF7D1F9801BA04243D840
:101910002868C1684906F6D58168244A0A40826071
:1019200069682A690A43A969114382680A43826087
:10193000E9680161A968090402690A430261C16892
:1019400080229143C1608168890613D41849C1601F
:101950007D20C400FFF7AAF906462868C1688906F9
:1019600008D4FFF7A3F9801BA042F6D904207870B1
:10197000286815E0C16C03229143C164E9696A6972
:101980000A43C16C1143C164FF2141620120787098
:101990000024204601B0F0BD042078702868C1689A
:1019A000FF214162009C204601B0F0BDBFFF8FFFC8
:1019B0005FDF010010B500680949884200D010BD02
:1019C0000120800407490A6802430A6002240021BA
:1019D00020460A46FFF7C6F92046FFF7B7F910BDC3
:1019E0000028004050100240F048016802220A43DB
:1019F00002607047F0B583B000280CD0044605465D
:101A0000503541208700606A002807D000202061FF
:101A10002046143007E0012003B0F0BD6068B842F2
:101A200003D020461C300021016000200290A062FB
:101A30006878002804D100202870204600F03AF889
:101A400002226A702068016840239943016061683E
:101A5000394021239B020195A5681D406B18012187
:101A6000CD02E6682E409B19256915401D43636928
:101A70000B402B43FC37A26917401F43E36938250D
:101A80001D403D43236A80261E402E434B03A56A1A
:101A90001D4035430560636A10251D40120C042368
:101AA0001340EA18426002986065019A517003B0D1
:101AB000F0BD000080B586B000681149884201D0B1
:101AC00006B080BD012001030E4A93680B4393606A
:101AD00011680143116011680140009100200590D8
:101AE00003210491039002200290E0200190052040
:101AF0000007009901A9FFF705F806B080BDC046B0
:101B0000003001402C100240F0B587B00493044629
:101B10005020205C012802D1022007B0F0BD1646FB
:101B2000029125465035012007462870FFF7BEF880
:101B300029460390687801285DD1029A002A00D1D5
:101B4000DFE0002E384657D003200D460090487045
:101B500000206065E686A6862263A087A0632064D5
:101B600060640190E08720680127F903A2688A4237
:101B700008D1016840229143016001218903026874
:101B80000A4302600168490603D4016840220A43FF
:101B9000026061684A424A41731E594259411143E9
:101BA000FA02E368934240D1002907D0029A1188D3
:101BB000C160901C2063E08E401EE086E08E00280D
:101BC000049E73D0701C0BD11FE0216B0A88C26089
:101BD000881C2063E08E401EE086E08E002865D0E1
:101BE000206881688907F0D4FFF760F80399401AEC
:101BF000B042F2D341E0022000220A7007B0F0BDEB
:101C0000FFF754F8E08E002850D0206881688907DB
:101C1000F6D5216B0A88C260881C2063E08E401EC6
:101C2000E086E08E0028F0D140E0002908D002993B
:101C300009780173206B401C2063E08E401EE08613
:101C4000E08E0028049E31D0701C0CD11EE0216B68
:101C500009780173206B401C2063E08E401EE086F3
:101C6000E08E002822D0206881688907EFD4FFF732
:101C70001DF80399401AB042F2D30098019029460A
:101C80006DE0FFF713F8E08E00280FD02068816820
:101C90008907F6D5216B09780173206B401C2063FE
:101CA000E08E401EE086E08E0028EFD1EB48006811
:101CB0002E4900F057FF7D21C90041430691412084
:101CC00080006168814221D1802120463246039BF9
:101CD00000F052F9002804D0606D202108436065AF
:101CE0006165A0680028294608D100200590206879
:101CF000C16805912946806805900598606D0028A7
:101D00002DD0384600220A7007B0F0BD0698002892
:101D1000E7D00698401E0690206880680006E0D54F
:101D200006980028DDD00698401E0690206880683E
:101D30000006D6D506980028D3D00698401E0690F7
:101D4000206880680006CCD506980028C9D006987F
:101D5000401E0690206880680006D7D4C1E74F7007
:101D6000019800220A7007B0F0BDC04600366E012F
:101D7000401E010E01D00120704707490B4A5060F8
:101D8000064803680B4003218907591801600020A9
:101D90009060072111607047FFFFFF0020ED00E019
:101DA00002480168022291430160704710E000E0A0
:101DB000FEE7F0B59BB0119106461078002800D1DF
:101DC000C0E015465F7A187A099018681490586830
:101DD0000690219813902098997A18904143089181
:101DE0000024159610940592049603970EE011981E
:101DF00008994018119015961098401C109084B2C4
:101E00002846FEF771FAA04200D89BE0285D0A2818
:101E1000EDD009998842EFD3B842EDD80D28EBD028
:101E20000999401AC1000698401842881304828814
:101E3000C08800048018079000021A0E12181406B9
:101E400075D0069C615A5B18190CC9B20F91002914
:101E50006DD0D1B20E9100160D90079800040116B6
:101E60000F980C9140180A900020014606460B90EE
:101E7000044604E01299491C0E98814257D00D98EF
:101E800012910818189A5043119908181790801841
:101E900016900F9F0C9D0B98149A05E0401C7F1E16
:101EA0006D1C7608002F27D0002E02D02642F5D1D7
:101EB00005E099B2545C5B1C80262642EED11A9450
:101EC0000024010415D0139900910191189A11462C
:101ED0004143281A5043159A101841188AB280B20B
:101EE000179989B21993169B9BB200F0B9F8199B08
:101EF000149A20461A9CD2E70104BBD01399009192
:101F00000191189A1146414325460A9C201A5043D4
:101F1000159A101841188AB280B2179989B21C46D6
:101F2000169B9BB200F09CF823462C46A2E707982C
:101F3000C0B218994843159941181591059D049E02
:101F4000039F59E71BB0F0BD10B582B0049C00940C
:101F50000194121892B25B189BB200F081F802B0A3
:101F600010BDFEE77047000080B50248FFF782FC15
:101F700080BDC0467C000020F0B583B01F461646E9
:101F80000D460446FEF792FE381A01968619FEF7B2
:101F90008DFE0746314800684001000D70430290F5
:101FA0002268916829400020A94229D10199491C41
:101FB00022D0009020465030019004E020688068D4
:101FC0002840A84246D1FEF771FEC01BB04219D28C
:101FD00002980299491E02910028EFD10646EDE7CA
:101FE00091682940A9420BD191682940A94207D1A3
:101FF00091682940A94203D191682940A942EFD0B4
:1020000003B0F0BD20684168E02291434160412166
:10201000890062688A420BD1A1680122D3039942E8
:1020200002D09202914203D10168402291430160A3
:1020300001214A03A36A934205D1036893430360D5
:102040000368134303600020019A1070517003204D
:1020500003B0F0BD009803B0F0BDC04608000020FA
:10206000F0B595B000AC0FC408AD262028706C48C0
:1020700040260022079231460696FEF70FFE7D208D
:10208000C70068480124294622463B460497FFF7CB
:102090003BFD09AD2C7062483146079E3246FEF783
:1020A000FDFD6048294622463B46FFF72DFD0AAD5F
:1020B000222028705A48069F39463246FEF7EEFD28
:1020C000584829462246049BFFF71EFD0BAD009899
:1020D000287053483E463946079AFEF7DFFD5148BF
:1020E00029462246049F3B46FFF70EFD0CAD0198A2
:1020F00028704B483146079E3246FEF7CFFD4948CF
:102100002946224605943B46FFF7FEFC0DAD02989A
:102110002870434806993246FEF7C0FD41482946DB
:1021200022463B46FFF7F0FC0EAD039828703C4872
:10213000069E3146079C2246FEF7B0FD39482946E7
:10214000059A3B46FFF7E0FC1A9803900002C00E88
:102150000FAD2870324831462246FEF79FFD3148C8
:102160002946059C22463B46FFF7CEFC0398000417
:10217000800E10AD28702A483146079AFEF78EFD72
:102180002848294622463B463E46FFF7BDFC0398B9
:10219000C0B2C00811AD28702148069C2146079F97
:1021A0003A46FEF77BFD1F482946059A3346FFF75E
:1021B000ABFC1B9803900002C00E12AD28701848AB
:1021C00021463A46FEF76AFD16482946059E3246E4
:1021D000049C2346FFF798FC03980004800E13AD7F
:1021E00028700F48069F3946079AFEF757FD0D489D
:1021F000294632462346FFF787FC0398C0B2C00841
:1022000014AD287006483946079AFEF747FD054881
:10221000294632462346FFF777FC15B0F0BDC0468D
:1022200000040050FC000020F0B587B006AFAE20DF
:102230003870FC484021049100240646224603944D
:10224000FEF72CFD7D200190C3000593F648012583
:1022500039462A460295FFF757FC06AF81203870B1
:102260003046049E31462246FEF718FDEE483946B8
:102270002A46059D2B46FFF747FC06AF9120387094
:10228000E84831463446039AFEF708FDE6483946E9
:10229000029E32462B46FFF737FC06AF822038708D
:1022A000E0482146039C2246FEF7F8FCDE4839460A
:1022B00032462B46FFF728FC06AF50203870D9482D
:1022C000049D29462246FEF7E9FCD74839463246A6
:1022D000059BFFF719FC06AF83203870FC482946A0
:1022E0002246FEF7DBFCFB4839463246059D2B466D
:1022F000FFF70AFC06AF01983870F54804992246AA
:10230000FEF7CCFCF348394632462B46FFF7FCFB80
:1023100006AF87203870EE48049D29462246FEF716
:10232000BDFCEC4839463246059BFFF7EDFB06AF96
:1023300006203870E64829462246FEF7AFFCE548FD
:1023400039463246059D2B46FFF7DEFB06AF8A2055
:102350003870DF48049C2146039AFEF79FFCDD4855
:10236000394632462B46FFF7CFFB06AF642001907B
:102370003870D74825462146039C2246FEF78EFC3E
:10238000D44839463246059BFFF7BEFB06AF8B208B
:102390003870FE4829462246FEF780FCFC48394644
:1023A0003246059D2B46FFF7AFFB06AF782038700D
:1023B000F64804992246FEF771FCF5483946324644
:1023C0002B46FFF7A1FB06AF8C203870EF48049D29
:1023D00029462246FEF762FCED4839463246059B07
:1023E000FFF792FB06AF01983870E848294622466D
:1023F000FEF754FCE64839463246059D2B46FFF76A
:1024000083FB06AFA0203870E04804992246FEF70F
:1024100045FCDF48394632462B46FFF775FB06AFD1
:1024200072203870D948049D29462246FEF736FCB2
:10243000D74839463246059BFFF766FB06AFA12019
:102440003870D24829462246FEF728FCD048394643
:102450003246059D2B46FFF757FB06AF22463C70E0
:10246000CA48049C2146FEF719FCC9483946324641
:102470002B46FFF749FB06AFA2203870C34825461C
:102480002146039C2246FEF709FCC14839463246E4
:10249000059BFFF739FB06AF22463C70BB48294637
:1024A0002C46FEF7FBFBBA4839463246059D2B46C3
:1024B000FFF72AFB06AFA4203870B4482146039CDE
:1024C0002246FEF7EBFBB248394632462B46FFF771
:1024D0001BFB06AFA8203870AC48049D2946224655
:1024E000FEF7DCFBAA4839463246059C2346FFF737
:1024F0000BFB06AF3F2001903870A4482946039A91
:10250000FEF7CCFBA2483946324625462346FFF764
:10251000FBFA06AFAD2038709C480499039C224614
:10252000FEF7BCFB9A48394632462B46FFF7ECFAD9
:1025300006AF8E2038709548049D29462246FEF746
:10254000ADFB934839463246059BFFF7DDFA06AFEF
:10255000B02038708D4829462246FEF79FFB8C48F4
:1025600039463246059D2B46FFF7CEFA06AF3C7042
:10257000864804992246FEF791FB85483946324643
:102580002B46FFF7C1FA06AFB12038707F48049D93
:1025900029462246FEF782FB7D4839463246059B96
:1025A000FFF7B2FA06AF3120387078482946224644
:1025B000FEF774FB764839463246059D2B46FFF7F9
:1025C000A3FA06AFB3203870704804992246FEF78C
:1025D00065FB6F48394632462B46FFF795FA06AF42
:1025E000F02038706948049D29462246FEF756FBC4
:1025F000674839463246059BFFF786FA06AFBB208F
:102600003870624829462246FEF748FB6048394642
:102610003246059D2B46FFF777FA06AF3A20387011
:102620005A4803E000040050FC00002004992246B0
:10263000FEF734FB5648394632462B46FFF764FA1C
:1026400006AFBE2038705148049D29462246FEF749
:1026500025FB4F4839463246059BFFF755FA06AF32
:102660003E203870494829462E462246FEF716FB82
:1026700047483946029C2246059D2B46FFF744FAFF
:1026800006AF2E20387041483146039E3246FEF791
:1026900005FB3F48394622462B46FFF735FA06AF81
:1026A000AF203870394804993246FEF7F7FA3848B7
:1026B00039462246059BFFF727FA5F22304631460E
:1026C000019B00F009F82046FEF70CFA07B0F0BDB8
:1026D00000040050FC000020F0B58DB002AC0EC428
:1026E000044608AE2520307028484021059100227C
:1026F00001920746FEF7D2FA7D20C30007932448D3
:10270000012531462A460695FFF7FEF909AE3470D9
:102710003846059F3946019C2246FEF7BFFA1C4801
:1027200031462A46079BFFF7EFF90AAE0298307050
:10273000164839463D4627462246FEF7AFFAFB4883
:102740003146069A079C2346FFF7DEF90BAE039845
:102750003070F54829463A46FEF7A0FAF34831466C
:10276000069D2A462346FFF7CFF90CAE0498307039
:10277000ED4805993A46FEF791FAEC4831462A466B
:102780002346FFF7C1F90DB0F0BDC046000400506C
:10279000FC000020704780B5FEF78CFA80BD000079
:1027A000F0B599B00CAD281D3021FDF7DDFD0024FA
:1027B000069405940494039402940194E3480168F8
:1027C000E34F39400126F20289180160FEF7E6FA6C
:1027D00019480168394001601594102010900F9637
:1027E00030020E9006200C902846FEF7C1FC00280F
:1027F00003D0EFF3108072B6FEE70B940A940994AD
:1028000008960F20079007A82146FEF791FB0028A5
:1028100003D0EFF3108072B6FEE720200190300461
:10282000029001A8FEF7C2FA002803D0EFF310804F
:1028300072B6FEE719B0F0BD5010024070470000BC
:10284000A2B0FEF741FAFFF7ABFF002419941894E9
:10285000B34A1068042108431060106808910840CA
:102860000A900A98106801273843106010683840B1
:102870000A900A9810680221084310601068084006
:102880000A900A98179403261696A64815900520D4
:10289000000715AD2946FEF735F917941696C220A4
:1028A0001590A1482946FEF72DF9A0483902099153
:1028B000091D9F4A7B02026041608460C46004611C
:1028C00044618361C4610725046244628462C56215
:1028D000FFF790F8002803D0EFF3108072B6FEE700
:1028E00007962C2193484454C4639349856310266A
:1028F000078409229204099BC133436284620B94CA
:102900000A943D030563199418941794169415942A
:10291000476346C00460476008998160C7600761EB
:102920000C38FDF791FF002803D0EFF3108072B64A
:10293000FEE708960B95814D0A957E480AA9FDF79A
:102940007DFE002803D0EFF3108072B6FEE715A9D4
:102950000F721994642018901695079880051590A9
:102960007448FDF725FE002803D0EFF3108072B6FF
:10297000FEE7734FFF257F207249F9603C61786163
:10298000BD61FC613C627C62BC620C373846FEF77C
:102990008FFF002803D0EFF3108072B6FEE7012608
:1029A000042238463146FEF7B1FE002803D0EFF38B
:1029B000108072B6FEE70597FFF736FC6420FEF73D
:1029C00091F85C48FEF758F815A8001D049003958F
:1029D00028020790374618E05B48FF380090002037
:1029E000602240230146FFF7AFFA15AE30465C493E
:1029F0002A46069BFDF7F8FB0097534801900A20F2
:102A00003C213246544BFFF7D4F9FFF7C9F90422B1
:102A1000059D28463946FEF779FE2846FEF73AFE20
:102A200030210498FDF7A0FC0F940E940D940C94A3
:102A30000B940A94454A1068454D2840F902014319
:102A40001160FEF7ABF93649486A284048621E9487
:102A5000089819901897099817900620159015A8AE
:102A6000FEF786FB00284ED114941394129411970C
:102A70000F20109010A82146FEF75AFA002846D1E0
:102A800020200A9038040B900AA8FEF78FF900283E
:102A900041D1FEF7A9FF2A490878002814D04C60DC
:102AA0008C600C70079800906022402320462146DD
:102AB000FFF74AFA0097244801900A203C21254A52
:102AC000254BFFF776F91E49487800289DD01C4910
:102AD0004C7088683B2804D14868451C4D602046EE
:102AE00001E04D68401C06908860002D079800D1D9
:102AF00074E7022D00DA6FE7022D184800D16DE768
:102B0000039800046AE7EFF3108072B6FEE7EFF374
:102B1000108072B6FEE7EFF3108072B6FEE7C04693
:102B20002C1002400306000000040050FC000020AE
:102B300000300140A00000200024014010000010DF
:102B40007000002000280040FFFFFF0000700040E0
:102B5000FFE7FFFFB13400086C2D000800A5FF005F
:102B6000B734000843088B421AD3002203098B4272
:102B700079D3030A8B425ED3030B8B4242D3030CFF
:102B80008B4227D30902FF2212BA030C8B4202D3D5
:102B90001212090203D0030B8B4233D31AE0D3E0A5
:102BA000411A8041401C704703460B4371D44308CF
:102BB0008B42F5D3002203098B4254D3030A8B4284
:102BC00039D3030B8B421DD3030C8B4202D39446A3
:102BD0006EE0090AC30B8B4201D3CB03C01A5241EA
:102BE000830B8B4201D38B03C01A5241430B8B42A0
:102BF00001D34B03C01A5241030B8B4201D30B0389
:102C0000C01A5241C30A8B4201D3CB02C01A5241AF
:102C1000830A8B4201D38B02C01A5241430A8B4272
:102C200001D34B02C01A5241030A8B4201D30B025B
:102C3000C01A5241CDD2C3098B4201D3CB01C01A75
:102C4000524183098B4201D38B01C01A524143097F
:102C50008B4201D34B01C01A524103098B4201D36D
:102C60000B01C01A5241C3088B4201D3CB00C01ADA
:102C7000524183088B4201D38B00C01A5241430852
:102C80008B4201D34B00C01A5241411A52411000ED
:102C90007047CA0F00D04942031000D3404253404E
:102CA00000229C4603098B422DD3030A8B4212D388
:102CB0008901FC2212BA030A8B420CD389019211BA
:102CC0008B4208D3890192118B4204D3890137D0FA
:102CD000921100E08909C3098B4201D3CB01C01ACC
:102CE000524183098B4201D38B01C01A52414309DF
:102CF0008B4201D34B01C01A524103098B4201D3CD
:102D00000B01C01A5241C3088B4201D3CB00C01A39
:102D1000524183088B4201D38B00C01A5241D9D251
:102D200043088B4201D34B00C01A5241411A00D2D2
:102D300001465241104663465B1000D34042704743
:102D400063465B1000D3404201B50021004201D030
:102D5000C9430846C046C04602BD0000000000004E
:102D6000000001020304060708090000782D00088E
:102D7000B0310008207E1600FFEA03DEF7201109BB
:102D800004824FF91089FF2412090C80107CD6D2DE
:102D9000D0F0381E179393D67C1038433C39218AE3
:102DA0000C506539CB20B905884C446421C00E0015
:102DB000C806403201A0077831878846863430C182
:102DC000C717CF00FE0888846318C61082082082C7
:102DD00008210C6318C4222200639ADC72B608082A
:102DE0000402010FF84020100800D8F0F0088422F7
:102DF000108C4231001C3198D83C1E0F0783C1E073
:102E0000D8C461C0138C6318C6318C67803C4E8671
:102E10000606040C08102041FE3CC606041C3E07B2
:102E200003030306F804187164C9A346FE18306052
:102E30000F10203C0E070303030204F8071C306048
:102E400060DCE6C3C3C343663C7F82020204040421
:102E500008080810103C8F1E3E4F0636C78F1B33E4
:102E6000C03C66C2C3C3C3C3633F06060C3860F0F0
:102E70000FD800032801870E1C0C0380700E008001
:102E8000FF8000000FF8801C01C01C01C0E0E0E0E2
:102E9000C000791A183060830410204003000F83AB
:102EA0008C602602C79CC9D89D99D926EC60030482
:102EB0000F8002001001C016009804C04303F820E0
:102EC0006103181DE1F0FF861CC198330C7E0C31A4
:102ED0008330660CC37FC01F261D81E01C0180303B
:102EE0000600C00C00C18FC0FF031C3063073033E5
:102EF0000330330330330630CFF0FF982601806172
:102F00001FC611806018160FFEFFB0580C0613F98B
:102F100084C06030181E001F230E602600C00C0FF6
:102F2000C06C06C066063060F8F1EC198330660CA0
:102F3000FF98330660CC198378F0F6666666666F94
:102F40003C6186186186186DBCF3E6086106206452
:102F500007806C066063061860CF3FF0180601809A
:102F600060180601806018160BFEF00E7038E071D4
:102F7000E162C2C5C989931326238C47188433881C
:102F8000F0E0EE09C12C25C49C91921A41C81903A6
:102F900070201F063183202C0780F01E03C06809B3
:102FA0008318C1F0FE31986C361B19F8C0603018D8
:102FB0001E001F063183202C0780F01E03C06819F5
:102FC0008318C0E00E00E007FE0C618630C618C60C
:102FD0001F8370670C718778701D31984C0780E0F3
:102FE0001C0701A0D8CBC0FFF8CE188300600C01ED
:102FF00080300600C0180780F0EC0981302604C03C
:10300000981302604C08C20F80F87702302304182E
:1030100041840C80C8070070020020FBE7B0C08C20
:10302000208618418C40CB2065901A700E38031C06
:103030000104008200FCF98306101900D003001C73
:10304000013011C1860819E3F0F8F6063041881DF9
:1030500000D00600600600600600F03FCC110601BB
:1030600080700C0300E0380605C17FE0FB6DB6DB25
:103070006DB88210821086108610EDB6DB6DB6F842
:10308000181C34266242C1FF808420799830E6D92A
:10309000B33F2070180C060371CCC361B0D86C63C9
:1030A000E03CCF060C18189E010380C06031D99D0A
:1030B00086C361B0CC63F03C46FEC0C0E1623C1EFA
:1030C0004183061E183060C1830F003C19F6318C15
:1030D0001E080401FC40B02E11F82070180C0603E5
:1030E00071CCC6633198CC6F786002E66666F018E2
:1030F00000338C6318C6318B802070180C06033D9A
:1031000088D87836198C6F782E6666666666F0EE1B
:1031100071CE663198C663198C6631BDEFEE399871
:10312000CC6633198DEF3E31B0783C1E0D8C7CEEB1
:1031300039986C361B0D8CFC6030181E003D31B088
:10314000D86C361B8CFE030180C0F06DC6186186FA
:103150003C7638583E38FE2798C6318C38E731988F
:10316000CC6633198C7FF3612232141C0808EF36C9
:103170006162223235419C188108F7120E0301C1A9
:103180002109CFF361623234141C08080810E0FDF5
:103190001860830C70FE198C6318C4618C6318C3AB
:1031A000FFF0C318C631843318C631987024C1C0EB
:1031B00000000000050001000000020C0602F500FE
:1031C000030005040701F5000600090C0900F500DD
:1031D0001400080E0901F40022000D0C0F01F50087
:1031E00036000D0D0E01F4004C0002040401F50040
:1031F0004D00050F0601F5005700050F0600F5000C
:10320000610006080903F500670009090A00F800D3
:103210007200020304020000730004010601FD00B5
:10322000740002020501FF007500050C0500F500A1
:103230007D00090D0900F4008C00050D0902F40061
:103240009500080C0901F500A100080C0900F50023
:10325000AD00070C0901F500B800080C0900F500E5
:10326000C400080D0901F400D100080C0900F500A4
:10327000DD00070D0901F400E900080E0901F40062
:10328000F70002080501F900F900030A0501F90039
:10329000FD0009090A01F800080109050A01FA0000
:1032A0000E010A090A00F8001A01070D0801F400CE
:1032B00026010C0D1002F4003A010D0C0D00F50072
:1032C0004E010B0C0B00F5005F010B0C0C01F5001F
:1032D00070010C0C0D00F50082010A0C0B01F500C9
:1032E0009101090C0A01F5009F010C0C0D01F5007C
:1032F000B1010B0C0D01F500C201040C0601F50033
:10330000C801060C0700F500D1010C0C0D01F500F9
:10331000E3010A0C0B01F500F2010F0C1000F5009F
:1033200009020B0C0D01F5001A020B0D0D01F40042
:103330002C02090C0A01F5003A020B100D01F400F1
:1033400050020B0C0C01F5006102090C0A00F5009B
:103350006F020B0C0B00F50080020B0C0D01F50049
:1033600091020C0C0D00F500A302110C1100F500E8
:10337000BD020D0C0D00F500D1020C0C0D00F50086
:10338000E3020B0C0B00F500F402030F0602F5003C
:10339000FA02050C0500F5000203030F0601F50013
:1033A000080308070800F5000F03090109000200DF
:1033B000110304030500F500130307080801F900D1
:1033C0001A03090D0900F400290307080800F90091
:1033D0003003090D0900F4003F0308080800F90054
:1033E0004703070D0701F40053030A0C0800F90016
:1033F0006203090D0900F4007103040B0501F600D6
:103400007703050F0600F6008103090D0901F4009A
:103410009003040D0501F40097030E080E00F90057
:10342000A50309080900F900AE0309080900F9001D
:10343000B703090C0900F900C503090C0900F900DC
:10344000D30306080600F900D90306080701F900AE
:10345000DF0305090500F800E50309080900F90084
:10346000EE0308080800F900F6030C080C00F90048
:10347000020409080900F9000B04080C0800F9000F
:10348000170407080701F9001E0405100901F400DC
:103490002804010C0401F5002A0405100903F500B5
:1034A000340409030900FB00030406080C1018206B
:1034B0003030203A2030002564203A202564000076
:1034C000E0340008000000201000000004010008A3
:1034D000F034000810000020480700002001000818
:1034E00001000000040000000000200000000000B7
:04000005080000C12E
:00000001FF
