:020000040800F2
:10000000600700207501000841220008492000080F
:1000100000000000000000000000000000000000E0
:10002000000000000000000000000000F92B0008A4
:10003000000000000000000043220008AD2C000872
:10004000A5010008A501000845220008A501000837
:10005000A5010008A5010008A5010008A5010008E8
:1000600000000000A5010008A5010008A501000886
:10007000ED040008A501000800000000A50100082B
:100080000000000000000000000000000000000070
:10009000A50100080000000000000000A501000804
:1000A00000000000A50100080000000000000000A2
:1000B000A5010008A50100080000000000000000E4
:1000C00000F002F800F046F80CA030C808382418F8
:1000D0002D18671EA246AB4654465D46AC4201D180
:1000E00000F038F87E460F3EB6460FCC012633426C
:1000F00000D0FB1A3343A246AB46184788380000AD
:10010000A8380000103A02D378C878C1FAD852074C
:1001100001D330C830C101D504680C6070470000BD
:100120000023002400250026103A01D378C1FBD813
:10013000520700D330C100D50B60704710B5642959
:1001400002D100F09BF810BD002010BD1FB51FBDEF
:1001500010B510BD00F097F91146FFF7F7FF02F058
:100160000BFE00F0AFF903B4FFF7F2FF03BC00F0A1
:10017000B5F900000F4880F308880F480168090EA0
:100180000E4A914205D10E480E4901600E480F49B2
:1001900001600F4880470F480047FEE7FEE7FEE793
:1001A000FEE7FEE7FEE700000B480C490C4A0D4B4A
:1001B0007047000060070020040000001F000000DE
:1001C0003410024001000000000001400000000067
:1001D000752D0008C10000086001002060070020A4
:1001E00060030020600300200FB41CB5074B06AA73
:1001F0007B4469460090059800F019F90020694693
:1002000000F028F91CBC08BC04B0184761020000CB
:10021000F8B50E460446002020622046E168884773
:10022000002829D0252802D06268A16820E0E16872
:1002300020460027884705001ED028464138192847
:1002400002D80127FF022035324620462760294682
:10025000FFF774FF002808D0012804D0F61DF60827
:10026000F6000836D9E7361DD7E762682846A16848
:100270009047206A401CCFE7206AF8BDF7B50025FB
:1002800075291068009914A611D0C046C0460028F0
:1002900002DA404211A608E0009909688A0701D5F0
:1002A0000FA602E0490704D50EA6012501E0C046CD
:1002B000C046009F0024243704E000F0D0F830311D
:1002C0003955641C0028F8D12B4632462146009847
:1002D00000F04FF8FEBD0000000000002D000000FF
:1002E0002B0000002000000030B5441C03E0017822
:1002F000401C00290DD08107F9D10B4BDD0104C84A
:10030000D11A91432940FAD0001B0A0603D0C01E1F
:1003100030BD001B30BD0A0401D0801E30BD090273
:10032000FCD0401E30BD00000101010101E004C00D
:10033000091F0429FBD28B0701D50280801CC90745
:1003400000D00270704700290BD0C30702D00270A2
:10035000401C491E022904D3830702D50280801C59
:10036000891EE3E70022EEE70022DFE770477047CF
:100370007047FFB504460D4681B0243000902168D7
:10038000880604D51022E0699143216000E0012035
:10039000A84201DD471B00E000270498A1697A19F3
:1003A0001018081AA0612078C00602D42046C04662
:1003B000C046002608E003986268A168805D904707
:1003C000206A401C761C206204988642F3DB207869
:1003D000C0060AD52046C046C04606E06268A1684D
:1003E00030209047206A401C206238467F1E00283B
:1003F000F4DC07E000986268A168405D9047206ADD
:10040000401C206228466D1E0028F3DC2046C046B2
:10041000C0462078000602D5022005B0F0BD0120BC
:10042000FBE7000001694A1C02610878704700B5CB
:100430008FB0029100210591054901937944039100
:10044000114604906846FFF7E3FE0FB000BD0000C0
:10045000E5FFFFFF0A681070521C0A6070470146F2
:100460008008081A02091018020A1018020C101845
:10047000C008820012185200891A01E0401C0A3993
:100480000A29FBD27047754600F024F8AE460500F5
:1004900069465346C008C000854618B020B5FFF72E
:1004A00083FE60BCB64600260027C0C5C0C5C0C5D7
:1004B000C0C5C0C5C0C5C0C5C0C5403D490849008C
:1004C0008D46704710B50446C046C0462046FFF72B
:1004D0004AFE10BD00487047100000200149182056
:1004E000ABBEFEE7260002007047000080B5024860
:1004F00000F022F980BDC0467800002070B50546A6
:10050000006881680024490701D4204670BD8168D5
:10051000490706D58168890703D4816810220A43F8
:10052000826000F0E1FB0646286880684007ECD551
:1005300000F0DAFB801B0B28F6D3286880684007A0
:10054000F2D5686D102101436965A86D012420432F
:10055000A865204670BD70B5054600688268032115
:100560000A400024012A24D10268D20721D08268DF
:1005700005231340012B14D18268022313438360A7
:10058000016000F0B1FB064628688068C00710D003
:1005900000F0AAFB801B0B28F6D328688068C007F0
:1005A000F2D0686D102101436965A86D01242043D4
:1005B000A865204670BD000070B582B00446006892
:1005C000816803220A40012A02D10168C90731D19A
:1005D00081681A4A114208D0606D1021014361659B
:1005E000A06D01252843A06525E0816801220A430A
:1005F000826040480068404902F01CFD019001986B
:10060000002802D00198401EF8E700F06DFB064676
:1006100020680068002501E020680068C0070AD152
:1006200000F062FB801B0B28F6D320680068C0072F
:10063000F2D1D1E70025284602B070BD1700008036
:1006400070B582B002465020105C012802D1022011
:1006500002B070BD144650340120207013689D68AC
:100660006D0718D40E68496820483040E14D204A93
:10067000914215D1996A81439962700304D5012092
:10068000C005296881432960B00315D50120810583
:10069000286888430FE0516D20230B4353650CE01D
:1006A000996A0143996270030BD4B00304D5012009
:1006B000810528680843286000200021217002B0CD
:1006C00070BD0120C0052968014329600948006800
:1006D000094902F0AFFC0A21414301910198002829
:1006E000E3D00198401E0190F8E7C046FFFF0700E5
:1006F000011000000000002040420F0080B500F013
:1007000018F807490880074901400848814205D880
:1007100005480178002901D10121017080BDC04642
:1007200072000020F8FF000070000020B70B0000EE
:1007300070470068006C7047F0B581B004460068EF
:10074000056804212A460A40534253414668314015
:100750004A424A411A430123012A09D10822324060
:10076000514251412A071A4600D50A46002A39D17A
:10077000009321465431626DD20604D40122520204
:100780000B6813430B60C2681205920F20D1082238
:100790002A40534253412022A75C002F009F00D1E2
:1007A0001F46002F14D183685B0708D442680C23CE
:1007B0009A434260FF2202320868904305E0606D70
:1007C0001043606521465831A06D012202430A6042
:1007D0002046FFF793FFA0690128009B02D0206804
:1007E0000C210160802731463940484248412906A2
:1007F000194600D5014600290DD101200004616D84
:1008000001436165204600951D4600F0F7F82B4630
:10081000009D2068076010273E4070427041E90645
:1008200003D4002B04D001B0F0BD0346002BFAD155
:10083000206B002803D02068C068C00708D0A06DD6
:1008400002210143A165206807602046FFF770FF81
:100850002068076001B0F0BDF0B583B00125002825
:1008600000D1C4E0044606465036406D002805D14C
:1008700000203070A065204600F0C2F8606DC00610
:1008800025D420688168490721D481214900626DFF
:100890008A43911C6165816803221140554B0129EF
:1008A00002D10168C9072CD161680125EE07B14268
:1008B00005D0AD07A94202D09507A9420ED19207F3
:1008C00005699543056102690A43026111E0002050
:1008D0003070606D10210143616588E00269AA43B0
:1008E00002610F2292041D6895431D601A680A4335
:1008F0001A60C16818229143C160A168C2680A43A6
:10090000C2602246203201214D061E68AE431E60A1
:10091000656B6D061E682E431E608368DB0003D482
:100920000B0785681D4385600291C368324D1D40E9
:10093000C56023699B1E5D425D41AB00E6681E43B6
:1009400015786B033343266B1E43137B5B003343E5
:10095000A669E769B6031E43FB033343C6681E431B
:10096000C660676A06460C36FF230193C2339F4276
:1009700004D03368A16A19433943316051780129A1
:10098000029F0DD1002D07D0616D20220A436265C0
:10099000264658363A4600E03A0431681143316041
:1009A0000269E16B01290ED1019989008A43026134
:1009B000234640330ECB0A431A43016911430161B8
:1009C00002693A4303E0D10702D00269BA430261E7
:1009D0004169072291434161A16B42690A43426127
:1009E0000025A565606D384302218843606528466F
:1009F00003B0F0BD082701401902FEFF7047000058
:100A0000B0B586B000240594049403940294019434
:100A100000681349884201D006B0B0BD01204102F0
:100A2000104A93680B439360116801431160116889
:100A3000014000910394032002901020019000983F
:100A40000520000701A900F079F80C252846214669
:100A5000224600F0A7F9284600F098F906B0B0BD8C
:100A6000002401402C10024070B5044600688168E3
:100A7000022049070DD45021615C012909D0254687
:100A8000503501262E70E069012803D1002000288E
:100A900005D070BD2046FFF78FFD0028F9D1616DAC
:100AA0000D4A0A403102511861650022A265216891
:100AB0001C230B602A704A686469082C04D1042343
:100AC0009A434A604B6818221A434A608A68042392
:100AD00013438B6070BDC046FEF0FFFFB0B5044607
:100AE0005020205C012801D10220B0BD25465035A0
:100AF000012028702046FFF701FD00280AD120467A
:100B0000FFF729FD002805D1FF210231626D8A43DC
:100B1000511C616500212970B0BD0000B0B50446CC
:100B200000F0E2F80546601C02D08F4800780419F6
:100B300000F0DAF8401BA042FAD3B0BDF0B588B09F
:100B4000029008680790002800D1BAE00C465E4881
:100B50000299814201D0062000E002200090002787
:100B600006973B4603940EE007990843574A1060E6
:100B70005B1C20680790D8403F1D069A921C069285
:100B8000002800D19DE0012201929A400798104070
:100B90000790EDD005976068032507462F407E1E1D
:100BA000012E049513D82E4606998E40029CA56806
:100BB000B5430399CE6806998E402E43A660C006C1
:100BC000C00F98406568954305436560049D032FF9
:100BD000039C02991ED02846069DA840CA688243FD
:100BE000A068A840049D1043C860022F12D11C20A9
:100BF0000A46059908400F218140DD08AD005519CE
:100C00002E6A8E4303990A69824032430299039CFB
:100C10002A62049D2846069FB8400A68824360689D
:100C200086032840B84010430860B00F059F9FD04E
:100C3000554D2868019A104328600C223A400F2035
:100C400090401E4604998E43214975588543771874
:100C5000029905200007814206D01E488142009873
:100C6000039C03D1019801E00020039C904028439D
:100C70003860164880686568EA0202D5079A104312
:100C800001E0079A9043059F104A9060D068AA023D
:100C900002D5079A104301E0079A90430B4AD060AF
:100CA0005068AA0302D5079A104301E0079A9043BF
:100CB000064A50601068EA0300D555E70799884353
:100CC00054E708B0F0BDC0460008005000040140E1
:100CD0000800014000040050002A02D01822815070
:100CE0007047282281507047054800687047C04609
:100CF0001D48007802490A68101808607047C0460D
:100D00005801002080B50848016840220A4302606B
:100D1000032000F00BF8002801D0012080BD00F076
:100D200029F8002080BDC04600200240B0B504462E
:100D30007D20C0000C49097802F07CF901460B487F
:100D4000006802F077F901F065F90125032C09D854
:100D5000002807D10025E84321462A4600F022F862
:100D6000034804602846B0BD0400002000000020B5
:100D700008000020044801680122114301601107A6
:100D800042680A434260704734100240002805D48C
:100D90001F21084001218140014801607047C04681
:100DA00000E100E0002805D40322034693430A4AE9
:100DB0009A1803E00C220240064BD2188007C00E9E
:100DC0008901C9B28140FF238340106898430843DA
:100DD0001060704714ED00E000E400E00120000224
:100DE00062490A6802430A607047C0460120400316
:100DF0005D490A6802430A607047C046F0B587B093
:100E0000044600788006584F6DD5069401252907C1
:100E1000183F38680840059002D1386808433860A8
:100E2000039704912F02514C2068C0050FD420680D
:100E300038432060FFF758FF06462068384206D145
:100E4000FFF752FF801B6428F7D9032565E00323D1
:100E50001C040698416808462040434E503E3268C4
:100E60004A409102890F04D0A04202D1316889031F
:100E700053D401933C4909680294214014D0814223
:100E800012D00698007880060ED5374B1868E90412
:100E90001A680A431A601A688A431A600146029A5D
:100EA0009143196038424FD1069C207880062E4F1E
:100EB00011D561680846029A1040904208D1019A03
:100EC0001205114003221205336893430B4333602C
:100ED0003968014339600598002804D1039A1068E5
:100EE0000499884310602068810719D4410720D4F1
:100EF000010707D5032109033A1F13688B432169B2
:100F0000194311600025000607D503208004391F0E
:100F10000A688243606910430860284607B0F0BD44
:100F2000391F0A680C239A43A36813430B604107D7
:100F3000DED5032189023A1F13688B43E168194308
:100F400011600107D6D4DDE7FFF7CEFE05468A4CD7
:100F5000054800688005A7D4FFF7C6FE401BA042E5
:100F6000F6D9019DD9E7C0465010024000700040FC
:100F7000F0B583B00290002844D00E467D4800684A
:100F8000012101910840B04214D27A490868012534
:100F9000A84330430860784CFFF7A6FE0746754823
:100FA00000682840B04205D0FFF79EFEC01BA0425B
:100FB000F5D924E0029800688107704D06D52968AC
:100FC000F0229143029A92680A432A60C0071CD11A
:100FD0006848006801273840B04225D9654908684B
:100FE000B8430860644CFFF77FFE0546614800681F
:100FF000C00719D0FFF778FE401BA042F6D90320A6
:1010000003B0F0BD012003B0F0BD0298426829464C
:101010000C39012A32D0032A74D0022A77D1096808
:101020008903019877D52DE0029800684107534C59
:1010300007D50721090222688A430299C96811432A
:101040002160000708D50720C0022168814302986B
:101050000069C0000843206021680807820F4848E3
:101060007A441279520097440158765F3804214639
:10107000083909680904490F88406CE00968490784
:10108000019848D5296803200190814311432960C4
:10109000FFF72AFE074602984068374C032820D005
:1010A000022829D001280AD128680C2101400429EE
:1010B0008ED0FFF719FEC01BA042F5D909E02868C1
:1010C0000007800F00D183E7FFF70EFEC01BA04290
:1010D000F5D9019803B0F0BDFFF706FEC01BA04292
:1010E000F7D828680C2101400C29F5D170E7FFF7EB
:1010F000FBFDC01BA042ECD828680C210140082948
:10110000F5D165E7096889010198BBD403E0096856
:1011100089050198B6D403B0F0BD20460C380068AC
:10112000C00612D5184816E08A02120F154B9A5CB9
:101130000902890F491C2368DB0309D420460C38B7
:101140000068C00603D4114802E0104803E00E48CE
:10115000504301F06FFF21680906090F0C4A515CEA
:10116000C8400C4908600C480068FFF7DFFD03B079
:10117000F0BDC04600200240881300000C10024061
:1011800000127A007839000800093D000024F400BC
:101190002A3200080000002008000020F0B589B0C5
:1011A000002851D0614EF1680C220A4006920121BC
:1011B00005910904F76804910F4007900078C00773
:1011C00010D00698082806D006980C2800D0CFE04A
:1011D000002F00D1CCE03068800303D50798406829
:1011E00000284CD007980078800730D40798007802
:1011F000C00647D40798007800075FD4079908789D
:10120000400700D594E04C6A002C1AD006980C28B0
:1012100000D031E1012C32D0F068049A0240079BE3
:10122000996A8A422BD10F2189040140DA6A9142DE
:1012300025D1032189050840196B8842059800D003
:1012400018E2002009B0F0BD012009B0F0BD079BF5
:10125000D868810604D5316820221143316090435B
:101260000699042906D006990C2900D0A0E0002F89
:1012700000D09DE03168490737D5002835D1059861
:1012800009B0F0BD0698002800D1A7E030680799A2
:101290008969002900D1DCE001210A021043306095
:1012A0004C02FFF721FD05463068204200D00CE1DA
:1012B000FFF71AFD401B0228F6D913E0306D07999D
:1012C0004969002900D1B3E0012108433065FFF7E7
:1012D0000BFD0546306D800790D4FFF705FD401BE0
:1012E0000228F7D9032009B0F0BD1F210902726856
:1012F0008A431969090211437160316809229143D7
:1013000001433160F1680807820FDB485200C04694
:101310007A4492885200974403001D019E012201E5
:1013200070680004410F0498884094E10010024066
:1013300001221107B06B0840019002D1B06B084345
:10134000B063009103921702D24C2068C0051DD4EF
:10135000206838432060FFF7C7FC05462068384204
:1013600014D1FFF7C1FC411B03206429F6D981E1A8
:101370000798446805200004844200D1B6E004992F
:101380008C4200D0BBE030680843C3E00798816816
:101390000029029100D190E005200002814200D195
:1013A00008E1B94200D088E0306D3843039C08E181
:1013B0003168002800D1E2E0092291430143316005
:1013C000FFF792FC05463068400700D5E8E0FFF7DC
:1013D0008BFC411B03200229F5D94BE130688005C5
:1013E000079B03D59869002800D148E707204003F0
:1013F00071688143186A01437160FF2109067268B0
:101400008A43D969090689187160400B04998140A3
:10141000F0680006000F9C4A105CC1409B480160C8
:101420009B480068FFF782FC002800D022E1E1E63B
:10143000012188433065FFF757FC0546306D800772
:1014400000D4DBE6FFF750FC411B03200229F5D94D
:1014500010E101210A02904330604C02FFF744FC86
:1014600005463068204200D1C4E6FFF73DFC411B31
:1014700003200229F5D9FDE00120010632688A43E4
:1014800032604706FFF730FC0546022C0AD130686F
:10149000384200D1BDE0FFF727FC411B03200229A1
:1014A000F5D9E7E03068384200D1CAE6FFF71CFC06
:1014B000411B03200229F5D9DCE0306DB8433065CB
:1014C000039CA102306D88437BE0072040037168D4
:1014D0008143079A106A08437060FF200006716814
:1014E0008143D06900064018706083E60598800447
:1014F0003168014331603068049908430AE030687C
:101500008843306030680840089008980598810446
:10151000306888433060FFF7E7FB0546002C0CD0AD
:10152000059844043068204200D05BE6FFF7DCFBFE
:10153000411B03206429F5D99CE0059844043068D8
:10154000204200D14EE6FFF7CFFB411B0320642968
:10155000F5D98FE03068C00659D549487BE08A024A
:10156000120F464B9A5C0902890F491CF368049CD0
:1015700023426DD13068C00669D4424868E001203A
:1015800081433160FFF7B0FB05463068400700D467
:101590002CE6FFF7A9FB411B03200229F5D969E0DE
:1015A0001F20000271688143079800690002084308
:1015B00070601BE6039CA002316D01433165306D04
:1015C00038433065FFF790FB054602986402324FBE
:1015D00000280FD0306D20420FD1FFF785FB411B53
:1015E0000320B942F6D945E0FFF77EFB411B0320FB
:1015F000B9423FD8306D2042F6D1019800280799B2
:1016000000D000E6B06B009A9043B063FBE51D4844
:1016100021E0FD200004F1688143079B28330DCBB6
:10162000084310431843F0601C48401C31680143D4
:101630003160FFF759FB04463068384200D000E6BD
:10164000FFF752FB011B03200229F5D912E00C48D9
:10165000504301F0EFFCF1680906090F0A4A515C9A
:10166000C840F64908600A480068FFF75FFB002899
:1016700000D1BBE509B0F0BD00127A00783900084E
:1016800000093D000024F4002A3200080000002078
:10169000080000200070004088130000FFFFFF00DA
:1016A0007047000003480178002900D070470121ED
:1016B0000170704775000020B0B50446012568042C
:1016C0001249086020688168C9040BD5C168C90542
:1016D00008D5C168DB4A0A4329028A43C260204612
:1016E000FFF7E0FF2068816889040BD5C168890590
:1016F00008D5C168D24A0A4369028A43C2602046BB
:10170000FFF7CEFF21202554B0BDC0461404014090
:10171000F0B581B000286AD00446054620356878C7
:10172000002804D100202870204600F081F8022013
:1017300068702068C168C9065BD40095CA214162FF
:1017400053214162C168002749061CD4C168802228
:101750000A43C260FFF7C8FA05462068C068400621
:1017600011D47D20C6000027FFF7BEFA401BB0420F
:1017700003D904200099487001272068C0684006FA
:1017800001D4012FF0D1002F009D37D1206881684E
:10179000264A0A408260616822690A43A1691143AE
:1017A00082680A438260E1680161A16809040269F4
:1017B0000A430261C16880229143C16081680027A9
:1017C00089061BD4FC49C1607D20C600FFF78CFA56
:1017D00005462068C06880060FD4FFF785FA401BD5
:1017E000B042F6D90420009D6870012706E0012769
:1017F00018E00027002F15D112E0009D002F0AD11C
:101800002068C16C03229143C164E16962690A43A3
:10181000C16C1143C1642068FF214162002F01D1D6
:1018200001206870F8B201B0F0BDC046BFFF8FFF65
:1018300010B500680949884200D010BD012080041D
:1018400007490A6802430A600224002120460A462A
:10185000FFF7A8FA2046FFF799FA10BD00280040CC
:1018600050100240F0B585B016460C460546734848
:1018700000687D27390201F0DDFBFB004343049340
:101880002020295C012902D1022005B0F0BD2A46A2
:1018900020320221517001210292039111702968B6
:1018A0008A6840211140002E11D0002901D1002169
:1018B000E17021780904627812025118A27889181F
:1018C000E27897050F43205C0106626954E0002925
:1018D00001D10021E170277800220A2F01920BD359
:1018E0000A3FF9B2CD224A43D10A0A224A43BF1A1B
:1018F000019A0901103100E011460F43F9B20904C1
:10190000009166780A2E0BD30A3EF1B2CD224A43EB
:10191000D10A0A224A43B61A019A0901103100E09D
:1019200011460E43F1B20F0200990F43A6780A2E1A
:101930000BD30A3EF1B2CD224A43D10A0A224A43CE
:10194000B61A019A0901103100E01146205C0E43DD
:10195000F1B20F43E1788E050A2809D30A38C1B2E3
:10196000CD224A43D10A0A224A43801A0A01103280
:1019700037431043020661692D68CA20686253200C
:10198000686260680190A669E069384308431043C3
:1019900003990F02A968626ABA4218D1294A13460C
:1019A00080331940A960E968C9B21143E96004991C
:1019B000491E04910499002935D0E968C907F6D079
:1019C000E8610120000329464431039B18E01C4ACA
:1019D000144680342140A960E968C9B21143E96026
:1019E00004930499491E0491049900291BD0E968C5
:1019F0008907F6D52862039B58035F0229464831C0
:101A0000019A16430E60A9683943A960A968014389
:101A1000A96058040C490A6802430A608A680243B4
:101A20008A60002001E003231846029AFF216962C0
:101A300000211170537005B0F0BDC04600000020B9
:101A40007FFDFFFF7FFEFFFF00040140F0B585B082
:101A500004462020205C012801D10227A9E023466A
:101A60002033022058700120049303901870002A3C
:101A700006D0C87800044A78120215188E783AE029
:101A80004878C20603D5EF2210400A304870CA7861
:101A900000200A2A0AD30A3AD3B2CD255D43EB0AC5
:101AA0000A255D43521B1B01103300E003461A4315
:101AB000D2B24B780A2B0AD30A3BDDB2CD266E4355
:101AC000F50A0A266E439B1B2D01103500E00546E2
:101AD00012042B43DBB21D028E780A2E09D30A3E74
:101AE000F0B2CD234343D80A0A234343F61A000138
:101AF000103015430643019602952068CA224262BF
:101B00005322426209780091C168002749061CD41B
:101B1000C16880220A43C260FFF7E6F805462068E4
:101B2000C068400611D47D20C6000027FFF7DCF80E
:101B3000401BB04203D90420049948700127206853
:101B4000C068400601D4012FF0D1002F26D10198A2
:101B5000C0B2029A024300984003C0218A43024364
:101B600020684260C16880229143C160816800277B
:101B7000890613D47649C1607D20C600FFF7B4F80A
:101B800005462068C068800608D4FFF7ADF8401B02
:101B9000B042F6D9042004994870039F002F02D167
:101BA0000498039941700020049908702068FF216F
:101BB0004162F8B205B0F0BD5FDF0100F0B587B05B
:101BC00004462020205C012801D10227BBE02346E7
:101BD0002033022058700120069305901870206869
:101BE000836840201840002A0AD0002801D1002034
:101BF000C870087800044A78120213188E7837E00B
:101C0000002801D10020C8700D7800200A2D0AD3C9
:101C10000A3DEAB2CD235343DA0A0A235343ED1AAD
:101C20001201103200E002461543EEB24A780A2A49
:101C30000AD30A3AD3B2CD255D43EB0A0A255D43A8
:101C4000521B1B01103300E0034635041A43D2B285
:101C500013028E780A2E09D30A3EF0B2CD224243F7
:101C6000D00A0A224243B61A000110302B43064321
:101C7000029603932068CA22426253224262049170
:101C8000C9780191C168002749061CD4C168802227
:101C90000A43C260FFF728F806462068C06840067D
:101CA00011D47D20C5000027FFF71EF8801BA84235
:101CB00003D904200699487001272068C0684006AF
:101CC00001D4012FF0D1002F32D10298C0B2039974
:101CD00001430198800508431C49014020680160C8
:101CE0000599890482688A438260049AD1681269DE
:101CF0000A43816811438160C16880229143C160B9
:101D000081680027890613D41149C1607D20C6006F
:101D1000FEF7EAFF05462068C068800608D4FEF793
:101D2000E3FF401BB042F6D9042006994870059F96
:101D3000002F02D10698059941700020069908707D
:101D40002068FF214162F8B207B0F0BD7F7F7F00BD
:101D50005FDF0100F0B583B000280CD004460546D3
:101D6000503541208700606A002807D0002020619C
:101D70002046143007E0012003B0F0BD6068B8428F
:101D800003D020461C300021016000200290A06298
:101D90006878002804D100202870204600F03AF826
:101DA00002226A70206801684023994301606168DB
:101DB000394021239B020195A5681D406B18012124
:101DC000CD02E6682E409B19256915401D436369C5
:101DD0000B402B43FC37A26917401F43E3693825AA
:101DE0001D403D43236A80261E402E434B03A56AB7
:101DF0001D4035430560636A10251D40120C042305
:101E00001340EA18426002986065019A517003B06D
:101E1000F0BD000010B586B000210591049103913A
:101E2000029101910068104A904201D006B010BDA5
:101E3000012002030D4B9C6814439C601A68024306
:101E40001A601A68024000920591032004900391E1
:101E500002200290E020019005200007009901A9CE
:101E6000FEF76CFE06B010BD003001402C100240A1
:101E7000F0B587B0049307465020385C012801D1A3
:101E80000224C1E0164602913D46503501242C70D3
:101E9000FEF72AFF0390687801283ED102990029B5
:101EA00000D1AFE0002E00D1ACE0032000906870BC
:101EB00000247C65FE86BE863963BC87BC633C64B7
:101EC0007C64FC8701200190C003B968814209D17C
:101ED000386801684022914301600121890302684A
:101EE0000A43026038680168490603D40168402249
:101EF0000A43026079684A424A41731E5942594175
:101F00001143019EF202FB68934208D100290ED0D2
:101F1000029A1188C160901C05E0022472E0002939
:101F200024D002991AE03863F88E401EF886F88EA5
:101F3000002830D03868816889070AD4FEF7D4FEBB
:101F40000499491CF3D00399401A04998842EED3AE
:101F50001DE0396B0A88C260881CE4E709780173C8
:101F6000386B401C3863F88E401EF886F88E0028C7
:101F700011D03868816889070BD4FEF7B5FE049943
:101F8000491CF3D00399401A04998842EED3009C6F
:101F900037E0396BE2E7E04800681D4901F04AF894
:101FA0007D21C9004143069141208000796881422A
:101FB0000DD180213846049A039B00F04BF900288C
:101FC0000FD0786D202108437865796509E006987F
:101FD000002806D00698401E0690386880680006E3
:101FE000F5D4B868002807D1002005903868C1688A
:101FF0000591806805900598786D002801D03446D9
:1020000000E06E7000202870204607B0F0BDC0468A
:1020100000366E01401E010E01D0012070470749B5
:10202000074A5060074803680B4003218907591885
:10203000016000209060072111607047FFFFFF00E2
:1020400010E000E020ED00E0FEE70000F0B581B018
:102050006F463870052005070124A6020022284695
:102060003146FEF739FE7D20C30006483946224638
:10207000FFF7FEFE284631462246FEF72DFE01B050
:10208000F0BDC046F8000020F0B599B00F910646AB
:102090001078002800D1C4E01546587A0690187AC6
:1020A000099018681390586805901F9811901E9811
:1020B000997A189041430891002416960B94049243
:1020C00003960EE00F98089940180F9016960B98FB
:1020D000401C0B9084B22846FEF706F9A04200D8B7
:1020E0009FE0285D0A28EDD009998842EFD3069930
:1020F0008842ECD80D28EAD00999401AC000059909
:102100000A18518809049388D2881204D2180792B9
:1021100012020B0E9A181306139B78D0059C205AB6
:102120000D18280C079C210440180E90C0B217907F
:10213000D0B20D90200C40B20C90200A40B2129008
:1021400000242246204626460A9404E0109A521C97
:102150000D998A425BD00E990906109236D00C99DF
:102160005118189F79430F9A5118179A1591C91948
:102170001491002704E0401C7F1C7608BA4226D048
:10218000002E02D02642F6D105E0A9B25C5C6D1C9F
:1021900080262642EFD10104EED0119900910191E1
:1021A000189B19464143129AD219101A5843169A8D
:1021B000101841188AB280B2159989B2149B9BB24B
:1021C00000F0ACF8179A139B0020D5E70A9F010492
:1021D000BCD0119900910191189A11464143129B6C
:1021E000181AC0195043169B181841188FB20C9931
:1021F000109B591851430F9B5B1899B280B29B18E2
:102200009BB23A4600F08AF8139B00209EE707989D
:10221000C0B218994843169941181691049D039E1F
:1022200055E719B0F0BD10B582B0049C009401943C
:10223000121892B25B189BB200F070F802B010BD99
:10224000FEE7704780B50248FFF736FA80BDC0460A
:10225000D4000020F0B585B01F4615460E46044652
:10226000FEF742FD381A4719FEF73EFD02462A489E
:1022700000684001000D7843049020688068304079
:1022800000210291B0421BD120465030019004E061
:10229000206880683040B04212D1681CF8D00397A3
:1022A0001746FEF721FD3A46039F801AB8420AD22C
:1022B00004980499491E04910028E9D10746E7E7EC
:1022C000029805B0F0BD20684168E022914341606A
:1022D0004121890062688A420BD1A1680122D3039F
:1022E000994202D09202914203D101684022914367
:1022F000016001214A03A36A934205D10368934315
:1023000003600368134303600020019A107051704A
:10231000032005B0F0BDC04600000020F0B593B02A
:1023200000AC0FC406AF2620387005200507012435
:10233000A6020022059228463146FEF7CDFC7D20FC
:10234000C30004937E4839462246FFF791FD284694
:1023500031462246FEF7C0FC07AF3C7028463146A6
:10236000059AFEF7B9FC764839462246049BFFF7EA
:102370007FFD284631462246FEF7AEFC08AF2220FC
:10238000387028463146059AFEF7A6FC6C48394657
:102390002246049BFFF76CFD284631462246FEF795
:1023A0009BFC09AF0098387028463146059AFEF725
:1023B00093FC634839462246049BFFF759FD2846A3
:1023C00031462246FEF788FC0AAF0198387028464D
:1023D0003146059AFEF780FC594839462246049B4F
:1023E000FFF746FD284631462246FEF775FC0BAF47
:1023F0000298387028463146059AFEF76DFC504821
:1024000039462246049BFFF733FD284631462246D3
:10241000FEF762FC0CAF0398387028463146059AE7
:10242000FEF75AFC464839462246049BFFF720FD3A
:10243000284631462246FEF74FFC189803900002CA
:10244000C00E0DAF387028463146059AFEF744FCA1
:102450003B4839462246049BFFF70AFD2846314691
:102460002246FEF739FC03980004800E0EAF387048
:1024700028463146059AFEF72FFC31483946224658
:10248000049BFFF7F5FC284631462246FEF724FC64
:102490000398C0B2C0080FAF387028463146059A7D
:1024A000FEF71AFC264839462246049BFFF7E0FC5B
:1024B000284631462246FEF70FFC19980390000289
:1024C000C00E10AF387028463146059AFEF704FC5E
:1024D0001B4839462246049BFFF7CAFC2846314672
:1024E0002246FEF7F9FB03980004800E11AF387006
:1024F00028463146059AFEF7EFFB11483946224639
:10250000049BFFF7B5FC284631462246FEF7E4FB64
:102510000398C0B2C00812AF387028463146059AF9
:10252000FEF7DAFB064839462246049BFFF7A0FC7B
:10253000284631462246FEF7CFFB13B0F0BDC04619
:10254000F8000020F0B585B004ADAE20287005205D
:1025500006070124A7020022039230463946FEF7FF
:10256000BBFB7D200190C3000293FD482946224613
:10257000FFF77EFC304639462246FEF7ADFB04AD40
:102580008120287030463946039AFEF7A5FBF448AF
:1025900029462246029BFFF76BFC3046394622460D
:1025A000FEF79AFB04AD9120287030463946039A15
:1025B000FEF792FBEA4829462246029BFFF758FCA9
:1025C000304639462246FEF787FB04AD822028704C
:1025D00030463946039AFEF77FFBE14829462246FA
:1025E000029BFFF745FC304639462246FEF774FB56
:1025F00004AD5020287030463946039AFEF76CFB34
:10260000D74829462246029BFFF732FC304639461E
:102610002246FEF761FB04AD832028703046394620
:10262000039AFEF759FBCE4829462246029BFFF744
:102630001FFC304639462246FEF74EFB04AD01989A
:10264000287030463946039AFEF746FBC4482946AF
:102650002246029BFFF70CFC304639462246FEF725
:102660003BFB04AD8720287030463946039AFEF7BD
:1026700033FBBB4829462246029BFFF7F9FB304655
:1026800039462246FEF728FB04AD06202870304666
:102690003946039AFEF720FBB14829462246029BA1
:1026A000FFF7E6FB304639462246FEF715FB04AD40
:1026B0008A20287030463946039AFEF70DFBA84859
:1026C00029462246029BFFF7D3FB30463946224675
:1026D000FEF702FB04AD64200190287030463946B5
:1026E000039AFEF7F9FA9E4829462246029BFFF715
:1026F000BFFB304639462246FEF7EEFA04AD8B208A
:10270000287030463946039AFEF7E6FA944829467F
:102710002246029BFFF7ACFB304639462246FEF7C5
:10272000DBFA04AD7820287030463946039AFEF76C
:10273000D3FAF94829462246029BFFF799FB304617
:1027400039462246FEF7C8FA04AD8C202870304680
:102750003946039AFEF7C0FAEF4829462246029B03
:10276000FFF786FB304639462246FEF7B5FA04AD40
:102770000198287030463946039AFEF7ADFAE648CC
:1027800029462246029BFFF773FB30463946224614
:10279000FEF7A2FA04ADA020287030463946039A0D
:1027A000FEF79AFADC4829462246029BFFF760FBB7
:1027B000304639462246FEF78FFA04AD7220287063
:1027C00030463946039AFEF787FAD348294622460F
:1027D000029BFFF74DFB304639462246FEF77CFA56
:1027E00004ADA120287030463946039AFEF774FAEA
:1027F000C94829462246029BFFF73AFB3046394634
:102800002246FEF769FA04AD039A2A70304639462B
:10281000FEF762FAF74829462246029BFFF728FB9B
:10282000304639462246FEF757FA04ADA2202870FA
:1028300030463946039AFEF74FFAEE4829462246BB
:10284000029BFFF715FB304639462246FEF744FA55
:1028500004AD039A2A7030463946FEF73DFAE54842
:1028600029462246029BFFF703FB304639462246A3
:10287000FEF732FA04ADA420287030463946039A98
:10288000FEF72AFADB4829462246029BFFF7F0FAB8
:10289000304639462246FEF71FFA04ADA8202870BC
:1028A00030463946039AFEF717FAD248294622469F
:1028B000029BFFF7DDFA304639462246FEF70CFA56
:1028C00004AD3F200190287030463946039AFEF748
:1028D00003FAC84829462246029BFFF7C9FA304648
:1028E00039462246FEF7F8F904ADAD20287030468F
:1028F0003946039AFEF7F0F9BE4829462246029B64
:10290000FFF7B6FA304639462246FEF7E5F904AD40
:102910008E20287030463946039AFEF7DDF9B54817
:1029200029462246029BFFF7A3FA30463946224643
:10293000FEF7D2F904ADB020287030463946039A2C
:10294000FEF7CAF9AB4829462246029BFFF790FAE8
:10295000304639462246FEF7BFF904AD039A01E03E
:10296000F80000202A7030463946FEF7B5F9A14834
:1029700029462246029BFFF77BFA3046394622461B
:10298000FEF7AAF904ADB120287030463946039A03
:10299000FEF7A2F9974829462246029BFFF768FAFC
:1029A000304639462246FEF797F904AD31202870AB
:1029B00030463946039AFEF78FF98E48294622465B
:1029C000029BFFF755FA304639462246FEF784F956
:1029D00004ADB320287030463946039AFEF77CF9DF
:1029E000844829462246029BFFF742FA3046394680
:1029F0002246FEF771F904ADF020287030463946C2
:102A0000039AFEF769F97B4829462246029BFFF7A5
:102A10002FFA304639462246FEF75EF904ADBB2058
:102A2000287030463946039AFEF756F97148294610
:102A30002246029BFFF71CFA304639462246FEF733
:102A40004BF904AD3A20287030463946039AFEF718
:102A500043F9684829462246029BFFF709FA3046A7
:102A600039462246FEF738F904ADBE2028703046BC
:102A70003946039AFEF730F95E4829462246029B02
:102A8000FFF7F6F9304639462246FEF725F904AD40
:102A90003E20287030463946039AFEF71DF9554806
:102AA00029462246029BFFF7E3F930463946224683
:102AB000FEF712F904AD2E20287030463946039AED
:102AC000FEF70AF94B4829462246029BFFF7D0F948
:102AD000304639462246FEF7FFF804ADAF20287095
:102AE00030463946039AFEF7F7F84248294622460F
:102AF000029BFFF7BDF9304639462246FEF7ECF857
:102B00005F2203980146019B00F008F82046FEF77B
:102B100005F805B0F0BDC046F8000020F0B58BB058
:102B200000AC0FC406AF252038700520050701242E
:102B3000A6020022059228463146FEF7CDF87D20F8
:102B4000C30004932B4839462246FFF791F92846E3
:102B500031462246FEF7C0F807AF00983870284685
:102B60003146059AFEF7B8F8224839462246049BBA
:102B7000FFF77EF9284631462246FEF7ADF808AF4A
:102B80000198387028463146059AFEF7A5F819488D
:102B900039462246049BFFF76BF928463146224608
:102BA000FEF79AF809AF0298387028463146059A20
:102BB000FEF792F80F4839462246049BFFF758F972
:102BC000284631462246FEF787F80AAF0398387048
:102BD00028463146059AFEF77FF8064839462246D0
:102BE000049BFFF745F9284631462246FEF774F864
:102BF0000BB0F0BDF800002070470000F0B585B0C4
:102C00000D460446224E002803D0012C0CDC009611
:102C100013E0204F3878002803D0FFF793FC002002
:102C20003870FF20000207E0022C01D11A4803E0AF
:102C30001D2C26DCFF200004009000205F223F2393
:102C40000146FFF7F0FA0520FDF768FF092C07DCC5
:102C500002A813A122462B46FDF7C6FA0B2005E079
:102C600002A80EA12246FDF7BFFA1E200221FF3660
:102C7000009101962D2102AA0B4BFFF705FA05B032
:102C8000F0BDAE20FFF7E2F9024801210170DAE75A
:102C900000FFFF007400002000A5FF002564000075
:102CA0002564203A202564003C32000880B5FEF7F8
:102CB0001FF880BDF0B599B00CAC34212046FDF76B
:102CC00053FB00250B950A950995089507950695E0
:102CD0000595049503950295019523480168234FB6
:102CE00039400126F20289180160FEF777F8204882
:102CF000016839400160B0051890179516950220BB
:102D00001590102010900F9630020E9006200C9017
:102D10002046FEF743FA002803D0EFF3108072B686
:102D2000FEE70B950A950995032008900F20079060
:102D300007A801242146FEF71BF9002803D0EFF372
:102D4000108072B6FEE7202001902004029001A8B6
:102D5000FEF754F8002803D0EFF3108072B6FEE7B8
:102D6000FEF744F819B0F0BD00700040FFE7FFFF28
:102D700050100240704700009AB0FDF7C3FFFFF704
:102D800099FF00240E940D940C940B940A949A4885
:102D900001680422114301600168039211401591FA
:102DA00015990168012529430160016829401591A1
:102DB00015990168022204921143016000681040D5
:102DC00015901598052000070990A9020591224643
:102DD000FDF782FF894E4021069130462246FDF7DD
:102DE0007BFF8021079130462A46FDF775FF0C9442
:102DF00003270B9768020890C01C0A900AAE099836
:102E00003146FDF79BFE0C9402970B97049F0A979F
:102E10007A483146FDF792FE0D940C970B95059874
:102E20000A9009983146FDF789FE0D940C970B9591
:102E300006980A90714F38463146FDF77FFE0D9493
:102E40000C940B9507980A9038463146FDF776FEAC
:102E50006B482E02311D6B4A072304624462846270
:102E6000C3620823026041608460C46004614461FD
:102E700008998161C361FEF76DFF002803D0EFF36D
:102E8000108072B6FEE72C215F484454C4635F494A
:102E90008463846204844563029AD20416C0046089
:102EA000456003998160C56005613146C13181612A
:102EB0002D0345620B940A940C38FDF7CDFC0028D5
:102EC00003D0EFF3108072B6FEE70B9550480A90DE
:102ED0004D480AA9FDF7B4FB002803D0EFF310809A
:102EE00072B6FEE7199418941794169415941494D6
:102EF0000AA82821FDF738FA4648FF277F21464ACD
:102F000014C0016047608460C46004614461083893
:102F1000FEF7FEFB002803D0EFF3108072B6FEE749
:102F200015A98C700C80199418943A480122FEF768
:102F300045FE002803D0EFF3108072B6FEE7374855
:102F40001490344814A901252A46FEF77FFD002875
:102F500003D0EFF3108072B6FEE720200AA90D54CB
:102F60008D700C801396119410942D480F900E9430
:102F70000D940B9427482A46FEF774FC002803D0D2
:102F8000EFF3108072B6FEE708970996FFF7DAFABA
:102F90001D4D264F244E07E0411C39603068FFF775
:102FA0002DFE2846FDF79AFD6420FDF7B7FD284663
:102FB000FDF75AFD1B49087800280FD034600C70CB
:102FC0003C600898000200905F223F232046214683
:102FD000FFF729F90998F430FDF7A0FD14480078AF
:102FE0000028DED01248047038683B28D4D13068FD
:102FF000401C30602146D0E72C10024000040050F5
:10300000F80000200030014078000020002401403A
:1030100010000010D4000020002800400101010031
:10302000808080807000002050010020540100202A
:103030007500002043088B421AD3002203098B42FB
:1030400079D3030A8B425ED3030B8B4242D3030C2A
:103050008B4227D30902FF2212BA030C8B4202D300
:103060001212090203D0030B8B4233D31AE0D3E0D0
:10307000411A8041401C704703460B4371D44308FA
:103080008B42F5D3002203098B4254D3030A8B42AF
:1030900039D3030B8B421DD3030C8B4202D39446CE
:1030A0006EE0090AC30B8B4201D3CB03C01A524115
:1030B000830B8B4201D38B03C01A5241430B8B42CB
:1030C00001D34B03C01A5241030B8B4201D30B03B4
:1030D000C01A5241C30A8B4201D3CB02C01A5241DB
:1030E000830A8B4201D38B02C01A5241430A8B429E
:1030F00001D34B02C01A5241030A8B4201D30B0287
:10310000C01A5241CDD2C3098B4201D3CB01C01AA0
:10311000524183098B4201D38B01C01A52414309AA
:103120008B4201D34B01C01A524103098B4201D398
:103130000B01C01A5241C3088B4201D3CB00C01A05
:10314000524183088B4201D38B00C01A524143087D
:103150008B4201D34B00C01A5241411A5241100018
:103160007047CA0F00D04942031000D34042534079
:1031700000229C4603098B422DD3030A8B4212D3B3
:103180008901FC2212BA030A8B420CD389019211E5
:103190008B4208D3890192118B4204D3890137D025
:1031A000921100E08909C3098B4201D3CB01C01AF7
:1031B000524183098B4201D38B01C01A524143090A
:1031C0008B4201D34B01C01A524103098B4201D3F8
:1031D0000B01C01A5241C3088B4201D3CB00C01A65
:1031E000524183088B4201D38B00C01A5241D9D27D
:1031F00043088B4201D34B00C01A5241411A00D2FE
:1032000001465241104663465B1000D3404270476E
:1032100063465B1000D3404201B50021004201D05B
:10322000C9430846C046C04602BD00000000000079
:1032300000000102030406070809000048320008E4
:1032400080360008207E1600FFEA03DEF720110911
:1032500004824FF91089FF2412090C80107CD6D209
:10326000D0F0381E179393D67C1038433C39218A0E
:103270000C506539CB20B905884C446421C00E0040
:10328000C806403201A0077831878846863430C1AD
:10329000C717CF00FE0888846318C61082082082F2
:1032A00008210C6318C4222200639ADC72B6080855
:1032B0000402010FF84020100800D8F0F008842222
:1032C000108C4231001C3198D83C1E0F0783C1E09E
:1032D000D8C461C0138C6318C6318C67803C4E869D
:1032E0000606040C08102041FE3CC606041C3E07DE
:1032F00003030306F804187164C9A346FE1830607E
:103300000F10203C0E070303030204F8071C306073
:1033100060DCE6C3C3C343663C7F8202020404044C
:1033200008080810103C8F1E3E4F0636C78F1B330F
:10333000C03C66C2C3C3C3C3633F06060C3860F01B
:103340000FD800032801870E1C0C0380700E00802C
:10335000FF8000000FF8801C01C01C01C0E0E0E00D
:10336000C000791A183060830410204003000F83D6
:103370008C602602C79CC9D89D99D926EC600304AD
:103380000F8002001001C016009804C04303F8200B
:103390006103181DE1F0FF861CC198330C7E0C31CF
:1033A0008330660CC37FC01F261D81E01C01803066
:1033B0000600C00C00C18FC0FF031C306307303310
:1033C0000330330330330630CFF0FF98260180619D
:1033D0001FC611806018160FFEFFB0580C0613F9B7
:1033E00084C06030181E001F230E602600C00C0F22
:1033F000C06C06C066063060F8F1EC198330660CCC
:10340000FF98330660CC198378F0F6666666666FBF
:103410003C6186186186186DBCF3E608610620647D
:1034200007806C066063061860CF3FF018060180C5
:1034300060180601806018160BFEF00E7038E071FF
:10344000E162C2C5C989931326238C471884338847
:10345000F0E0EE09C12C25C49C91921A41C81903D1
:1034600070201F063183202C0780F01E03C06809DE
:103470008318C1F0FE31986C361B19F8C060301803
:103480001E001F063183202C0780F01E03C0681920
:103490008318C0E00E00E007FE0C618630C618C637
:1034A0001F8370670C718778701D31984C0780E01E
:1034B0001C0701A0D8CBC0FFF8CE188300600C0118
:1034C00080300600C0180780F0EC0981302604C067
:1034D000981302604C08C20F80F87702302304185A
:1034E00041840C80C8070070020020FBE7B0C08C4C
:1034F000208618418C40CB2065901A700E38031C32
:103500000104008200FCF98306101900D003001C9E
:10351000013011C1860819E3F0F8F6063041881D24
:1035200000D00600600600600600F03FCC110601E6
:1035300080700C0300E0380605C17FE0FB6DB6DB50
:103540006DB88210821086108610EDB6DB6DB6F86D
:10355000181C34266242C1FF808420799830E6D955
:10356000B33F2070180C060371CCC361B0D86C63F4
:10357000E03CCF060C18189E010380C06031D99D35
:1035800086C361B0CC63F03C46FEC0C0E1623C1E25
:103590004183061E183060C1830F003C19F6318C40
:1035A0001E080401FC40B02E11F82070180C060310
:1035B00071CCC6633198CC6F786002E66666F0180D
:1035C00000338C6318C6318B802070180C06033DC5
:1035D00088D87836198C6F782E6666666666F0EE47
:1035E00071CE663198C663198C6631BDEFEE39989D
:1035F000CC6633198DEF3E31B0783C1E0D8C7CEEDD
:1036000039986C361B0D8CFC6030181E003D31B0B3
:10361000D86C361B8CFE030180C0F06DC618618625
:103620003C7638583E38FE2798C6318C38E73198BA
:10363000CC6633198C7FF3612232141C0808EF36F4
:103640006162223235419C188108F7120E0301C1D4
:103650002109CFF361623234141C08080810E0FD20
:103660001860830C70FE198C6318C4618C6318C3D6
:10367000FFF0C318C631843318C631987024C1C016
:1036800000000000050001000000020C0602F50029
:10369000030005040701F5000600090C0900F50008
:1036A0001400080E0901F40022000D0C0F01F500B2
:1036B00036000D0D0E01F4004C0002040401F5006B
:1036C0004D00050F0601F5005700050F0600F50037
:1036D000610006080903F500670009090A00F800FF
:1036E0007200020304020000730004010601FD00E1
:1036F000740002020501FF007500050C0500F500CD
:103700007D00090D0900F4008C00050D0902F4008C
:103710009500080C0901F500A100080C0900F5004E
:10372000AD00070C0901F500B800080C0900F50010
:10373000C400080D0901F400D100080C0900F500CF
:10374000DD00070D0901F400E900080E0901F4008D
:10375000F70002080501F900F900030A0501F90064
:10376000FD0009090A01F800080109050A01FA002B
:103770000E010A090A00F8001A01070D0801F400F9
:1037800026010C0D1002F4003A010D0C0D00F5009D
:103790004E010B0C0B00F5005F010B0C0C01F5004A
:1037A00070010C0C0D00F50082010A0C0B01F500F4
:1037B0009101090C0A01F5009F010C0C0D01F500A7
:1037C000B1010B0C0D01F500C201040C0601F5005E
:1037D000C801060C0700F500D1010C0C0D01F50025
:1037E000E3010A0C0B01F500F2010F0C1000F500CB
:1037F00009020B0C0D01F5001A020B0D0D01F4006E
:103800002C02090C0A01F5003A020B100D01F4001C
:1038100050020B0C0C01F5006102090C0A00F500C6
:103820006F020B0C0B00F50080020B0C0D01F50074
:1038300091020C0C0D00F500A302110C1100F50013
:10384000BD020D0C0D00F500D1020C0C0D00F500B1
:10385000E3020B0C0B00F500F402030F0602F50067
:10386000FA02050C0500F5000203030F0601F5003E
:10387000080308070800F5000F030901090002000A
:10388000110304030500F500130307080801F900FC
:103890001A03090D0900F400290307080800F900BC
:1038A0003003090D0900F4003F0308080800F9007F
:1038B0004703070D0701F40053030A0C0800F90041
:1038C0006203090D0900F4007103040B0501F60001
:1038D0007703050F0600F6008103090D0901F400C6
:1038E0009003040D0501F40097030E080E00F90083
:1038F000A50309080900F900AE0309080900F90049
:10390000B703090C0900F900C503090C0900F90007
:10391000D30306080600F900D90306080701F900D9
:10392000DF0305090500F800E50309080900F900AF
:10393000EE0308080800F900F6030C080C00F90073
:10394000020409080900F9000B04080C0800F9003A
:10395000170407080701F9001E0405100901F40007
:103960002804010C0401F5002A0405100903F500E0
:10397000340409030900FB00030406080C10182096
:1039800030000000A83900080000002010000000EE
:1039900004010008B839000810000020500700009A
:1039A00020010008000000000000200001000000CD
:0839B00004000000000000000B
:04000005080000C12E
:00000001FF
